922211  2044 100000009290200STATE HWY DIV                     1101524000 2154000 10001110001001001000000105  699999999999999999999999999999999999999999999999999999 100  0  0 0  0   0   0   0  0  0 0  0   0   0  0  0  0 0 0   0   0  0  0  00 0 6001500100 0  00 010001900 20 0  00 01800 300125  0  00 0   0   0  0 0  00 0   0   0  0 0  0001109999999999999999999991011031 00   0   0  0  0 0111111013571 45 580  90  0  0  0 0 0 0  012331000011000001001001403    0 1086   0 791   0  725  0 529   0  29 0  28  0  671  0  31  0  25  0 470  0   0 0   0 0  0 0  0  0 0 0   0   0  712  13 199 330  519   6 161 242 193  7 38  88   0  0  0  0  0 0  0  0 0000 00 0 0  0 0  0  0100185 93086 52848 5284820670313561655625168 16556 2516899999999999999  34945497     0 6813703 2920094   59544       020 0000001011022211000000001 700 260 896921000010033333313331122112111 10315999999999999999999999999999999999999999999999999999999999999999999999999999999999999999999999999999999999999999999999999999999999999999999999999999999999999999999999999999999999999999999999999999999999999999999999999999999999999999999999999999999999999999999999999999999999999999999999999999999999999999999999999999999999999999999999999999999999999999999999999999999999999999999999999999999999999999999999999999999999999999999999999999999999999999999999999999999999999999999999999999999999999999999999999999999999999999999999999999999999999999999999999999999999999999999999999
922211  244A 110020021210100COUNTY SHERIFFS DEPT              1003516000  922861 10001010111111001111100001   30999999999999999999999999999999999999999999999999999   5  0  0 0  12300 800   4  0  0 0  1   0   0  0  0  0 0 0   0   0  0  0  00 0   0   0  0 0  00 0   0   0  0 0  00 0   0   0  0  0  00 0   0   0  0 0  00 0   0   0  0 0  000000   3338   3000    3381111031 00   0   0  0  0 013311300  00  0  24   7  0  0  0 0 0 0  012000000000000000000000400    0   28   0  54   0   28  0  54   0   0 0   0  0    0  0   0  0   0  0   0  0   0 0   0 0  0 0  0  0 0 0   0   0   26   2  29  25   23   1  21  18   3  1  8   7   0  0  0  0  0 0  0  0 0000 00 0 0  0 0  0  0100185 93086 35000 3500026312370241869926312 18699 18699      0      0   2232000    44   16000   55000       0       000 0000000000000000000000000   0   0    000000000000000000000000000000  0  0999999999999999999999999999999999999999999999999999999999999999999999999999999999999999999999999999999999999999999999999999999999999999999999999999999999999999999999999999999999999999999999999999999999999999999999999999999999999999999999999999999999999999999999999999999999999999999999999999999999999999999999999999999999999999999999999999999999999999999999999999999999999999999999999999999999999999999999999999999999999999999999999999999999999999999999999999999999999999999999999999999999999999999999999999999999999999999999999999999999999999999999999999999999999999999999999
922211  244A 110030038210100BARBOUR CO SHERIFFS DEPT          1005     0  253023 40001110110110001110000001    8999999999999999999999999999999999999999999999999999   0  0  0 0  0   0   0   0  0  0 0  0   0   0  0  0  0 0 0   0   0  0  0  00 0 6001400  2 0  00 015002400  2 0  00 0   0   0  0  0  00 0   0   0  0 0  00 0   0   0  0 0  0000119999999    25699999991000031 00   0   0  0  0 013333300  00  0   6   2  0  0  0 0 0 0  011000000000000000000000402   48   13   3   0   0   13  3   0   0   0 0   0  0    0  0   0  0   0  0   0  0   0 0   0 0  0 0  0  0 0 0   0   0   12   4   0   0    9   4   0   0   3  0  0   0   0  0  0  0  0 0  0  0 0000 00 0 0  0 0  0  0100185 93086 35000 350001900019000 720011500  7200  7200      0      0    192000     0   17104    9000       0       000 0000000000000000000000000   0   0    000000000000000000000000000000  0  0999999999999999999999999999999999999999999999999999999999999999999999999999999999999999999999999999999999999999999999999999999999999999999999999999999999999999999999999999999999999999999999999999999999999999999999999999999999999999999999999999999999999999999999999999999999999999999999999999999999999999999999999999999999999999999999999999999999999999999999999999999999999999999999999999999999999999999999999999999999999999999999999999999999999999999999999999999999999999999999999999999999999999999999999999999999999999999999999999999999999999999999999999999999999999999999999
922211  244A 110040045210100SHERIFF S DEPT                    1007     0  160123 40001010111110001011000001    4999999999999999999999999999999999999999999999999999   2  0  0 0  0   0   0   0  0  0 0  0   0   0  0  0  0 0 0   0   0  0  0  00 0   0   0  0 0  00 0   0   0  0 0  00 0   0   0  0  0  00 0   0   0  0 0  00 0   0   0  0 0  000000   2920   1852   10681000031 00   0   0  0  0 013333100  00  0   5   0  0  0  0 0 0 0  012000000000000000000000403   32    4   0   0   3    4  0   0   3   0 0   0  0    0  0   0  0   0  0   0  0   0 0   0 0  0 0  0  0 0 0   0   0    4   0   2   1    4   0   2   1   0  0  0   0   0  0  0  0  0 0  0  0 0000 00 0 0  0 0  0  0100186 93087 35000 3500022000220001680016800 15600 15600      0      0    100000     0    8000       0       0       000 0000000000000000000000000   0   0    000000000000000000000000000000  0  0999999999999999999999999999999999999999999999999999999999999999999999999999999999999999999999999999999999999999999999999999999999999999999999999999999999999999999999999999999999999999999999999999999999999999999999999999999999999999999999999999999999999999999999999999999999999999999999999999999999999999999999999999999999999999999999999999999999999999999999999999999999999999999999999999999999999999999999999999999999999999999999999999999999999999999999999999999999999999999999999999999999999999999999999999999999999999999999999999999999999999999999999999999999999999999999999
922211  244A 110070075210100SHERIFF S DEPT                    1013     0  218394 70241010111111001111001001    4999999999999999999999999999999999999999999999999999   0  0  0 0  0   0   0   0  0  0 0  0   0   0  0  0  0 0 0   0   0  0  0  00 0 8001300  2 0  00 013001700  2 0  00 019002400  2  1  00 0   0   0  0 0  00 0   0   0  0 0  000111   3650   1017   26331111031 00   0   0  0  0 013133100  00  0   3   1  0  0  0 0 0 0  012000000000000000000000400    0    5   0   1   0    5  0   1   0   0 0   0  0    0  0   0  0   0  0   0  0   0 0   0 0  0 0  0  0 0 0   0   0    5   0   0   1    4   0   0   1   1  0  0   0   0  0  0  0  0 0  0  0 0000 00 0 0  0 0  0  0100185 93086 35000 3500017160171601560015600 15000 15000    505   5685    130760     0   11847   12500    6720       000 0000000000000000000000000   0   0    000000000000000000000000000000  0  0999999999999999999999999999999999999999999999999999999999999999999999999999999999999999999999999999999999999999999999999999999999999999999999999999999999999999999999999999999999999999999999999999999999999999999999999999999999999999999999999999999999999999999999999999999999999999999999999999999999999999999999999999999999999999999999999999999999999999999999999999999999999999999999999999999999999999999999999999999999999999999999999999999999999999999999999999999999999999999999999999999999999999999999999999999999999999999999999999999999999999999999999999999999999999999999999
922211  244A 110080082210100CALHOUN CO SHERIFFS OFC           1015 45000 1238112 20000010111111000111000001   32999999999999999999999999999999999999999999999999999   5  0  0 0  12330 800   3  0  0 0  1   0   0  0  0  0 0 0   0   0  0  0  00 0   0   0  0 0  00 0   0   0  0 0  00 0   0   0  0  0  00 0   0   0  0 0  00 0   0   0  0 0  000000  14905   7005   79001110031 00   0   0  0  0 0111331013570  0  11   6  1  0  0 0 0 0  011000000000000000000000400    0   31   0  12   0   31  0  12   0   0 0   0  0    0  0   0  0   0  0   0  0   0 0   0 0  0 0  0  0 0 0   0   0   31   0  12   0   31   0  12   0   0  0  0   0   0  0  0  0  0 0  0  0 0000 00 0 0  0 0  0  0100185 93086 37500 3750025000250001700017000 13000 13000      0      0    817500     0  322625  120000       0       000 0000000000000000000000000   0   0    000000000000000000000000000000  0  0999999999999999999999999999999999999999999999999999999999999999999999999999999999999999999999999999999999999999999999999999999999999999999999999999999999999999999999999999999999999999999999999999999999999999999999999999999999999999999999999999999999999999999999999999999999999999999999999999999999999999999999999999999999999999999999999999999999999999999999999999999999999999999999999999999999999999999999999999999999999999999999999999999999999999999999999999999999999999999999999999999999999999999999999999999999999999999999999999999999999999999999999999999999999999999999999
922211  244A 110090099210100SHERIFF S DEPT                    1017     0  398022 20001001111111001111100001   13999999999999999999999999999999999999999999999999999   2  0  0 0  0   0   0   0  0  0 0  0   0   0  0  0  0 0 0   0   0  0  0  00 0   0   0  0 0  00 0   0   0  0 0  00 0   0   0  0  0  00 0   0   0  0 0  00 0   0   0  0 0  000000   4380   3650    7301100031 00   0   0  0  0 0113111013570  0   9   4  0  0  0 0 0 0  012000000000000000000000400    0   13   0   9   0   13  0   9   0   0 0   0  0    0  0   0  0   0  0   0  0   0 0   0 0  0 0  0  0 0 0   0   0   13   0   6   3   10   0   6   2   3  0  0   1   0  0  0  0  0 0  0  0 0000 00 0 0  0 0  0  0100185 93086 35000 3500023000260001560022300 15600 15600      0      0    668340     0   42660   39000       0       000 0000000000000000000000000   0   0    000000000000000000000000000000  0  0999999999999999999999999999999999999999999999999999999999999999999999999999999999999999999999999999999999999999999999999999999999999999999999999999999999999999999999999999999999999999999999999999999999999999999999999999999999999999999999999999999999999999999999999999999999999999999999999999999999999999999999999999999999999999999999999999999999999999999999999999999999999999999999999999999999999999999999999999999999999999999999999999999999999999999999999999999999999999999999999999999999999999999999999999999999999999999999999999999999999999999999999999999999999999999999999
922211  244A 110110111210100CHILTON CO SHERIFF S DEPT         1021     0  311232 20001010111111001111000001   12999999999999999999999999999999999999999999999999999   3  0  0 0  010001800   1  0  0 0  012002100  1  0  0 0 0   0   0  0  0  00 0   0   0  0 0  00 0   0   0  0 0  00 0   0   0  0  0  00 0   0   0  0 0  00 0   0   0  0 0  0000009999999   182599999991101031 00   0   0  0  0 013333300  00  0   7   3  0  0  0 0 0 0  012000000000000000000000400    0   10   0   5   0   10  0   5   0   0 0   0  0    0  0   0  0   0  0   0  0   0 0   0 0  0 0  0  0 0 0   0   0   10   0   0   5    9   0   0   5   1  0  0   0   0  0  0  0  0 0  0  0 0000 00 0 0  0 0  0  0100185 93086 35000 3500018850288481833018850 18330 18330      0      0    352429     0   35261   35880       0       000 0000000000000000000000000   0   0    000000000000000000000000000000  0  0999999999999999999999999999999999999999999999999999999999999999999999999999999999999999999999999999999999999999999999999999999999999999999999999999999999999999999999999999999999999999999999999999999999999999999999999999999999999999999999999999999999999999999999999999999999999999999999999999999999999999999999999999999999999999999999999999999999999999999999999999999999999999999999999999999999999999999999999999999999999999999999999999999999999999999999999999999999999999999999999999999999999999999999999999999999999999999999999999999999999999999999999999999999999999999999999
922211  244A 110130135210100SHERIFF S DEPARTMENT              1025     0  275283 40001010111111001111000001    9999999999999999999999999999999999999999999999999999   0  1  0 0  1   0   0   0  0  0 0  0   0   0  0  0  0 0 0   0   0  0  0  00 0 8001700  1 0  00 11600 100  0 3  00 1   0   0  0  0  00 0   0   0  0 0  00 0   0   0  0 0  000110   6475    750   57251111031 00   0   0  0  0 013333100  00  0   7   2  0  0  0 0 0 0  020000000000000000000000401    0    9   0   5   0    9  0   5   0   0 0   0  0    0  0   0  0   0  0   0  0   0 0   0 0  0 0  0  0 0 0   0   0    9   0   4   1    8   0   4   1   1  0  0   0   0  0  0  0  0 0  0  0 0000 00 0 0  0 0  0  0100185 93086 35000 3500021127211271874019794 17035 17993    650   8352    248056     0   35573       0       0       000 0000000000000000000000000   0   0    000000000000000000000000000000  0  0999999999999999999999999999999999999999999999999999999999999999999999999999999999999999999999999999999999999999999999999999999999999999999999999999999999999999999999999999999999999999999999999999999999999999999999999999999999999999999999999999999999999999999999999999999999999999999999999999999999999999999999999999999999999999999999999999999999999999999999999999999999999999999999999999999999999999999999999999999999999999999999999999999999999999999999999999999999999999999999999999999999999999999999999999999999999999999999999999999999999999999999999999999999999999999999999
922211  244A 110140142210100CLAY CO SHERIFF S OFC             1027     0  130934 70240001111111001111000001    4999999999999999999999999999999999999999999999999999   0  0  0 0  0   0   0   0  0  0 0  0   0   0  0  0  0 0 0   0   0  0  0  00 0   0   0  0 0  00 0   0   0  0 0  00 0   0   0  0  0  00 0   0   0  0 0  00 0   0   0  0 0  000000  18250   7300  109501101031 00   0   0  0  0 013333330  00  0   2   2  0  0  0 0 0 0  020000000000000000000000400    0    4   0   5   0    4  0   5   0   0 0   0  0    0  0   0  0   0  0   0  0   0 0   0 0  0 0  0  0 0 0   0   0    4   0   4   1    4   0   4   1   0  0  0   0   0  0  0  0  0 0  0  0 0000 00 0 0  0 0  0  0 93085 93086 35000 3500018500185001600016000 12000 12000      0      0    165550     0   16555       0       0       000 0000000000000000000000000   0   0    000000000000000000000000000000  0  0999999999999999999999999999999999999999999999999999999999999999999999999999999999999999999999999999999999999999999999999999999999999999999999999999999999999999999999999999999999999999999999999999999999999999999999999999999999999999999999999999999999999999999999999999999999999999999999999999999999999999999999999999999999999999999999999999999999999999999999999999999999999999999999999999999999999999999999999999999999999999999999999999999999999999999999999999999999999999999999999999999999999999999999999999999999999999999999999999999999999999999999999999999999999999999999999
922211  244A 110200201210100SHERIFF S DEPT                    1039     0  364362 20001011111111111111011101    9999999999999999999999999999999999999999999999999999   2  0  0 0  1   0   0   0  0  0 0  0   0   0  0  0  0 0 0   0   0  0  0  00 0 8001700  2 0  00 013002200  2 0  00 01600 100  1  0  00 0   0   0  0 0  00 0   0   0  0 0  0001109999999   109599999991011011 00   0   0  0  0 011131101 380  0  10   3  0  2  0 0 0 1  212000000000000000000000400    0   10   0   8   0   10  0   8   0   0 0   0  0    0  0   0  0   0  0   0  0   0 0   0 0  0 0  0  0 0 0   0   0   10   0   5   3    9   0   5   2   1  0  0   1   0  0  0  0  0 0  0  0 0000 00 0 0  0 0  0  0100185 93086 35000 3500016000160001380016000 13800 13800      0      0    450000     0   27000   13000       0       000 0000000000000000000000000   0   0    000000000000000000000000000000  0  0999999999999999999999999999999999999999999999999999999999999999999999999999999999999999999999999999999999999999999999999999999999999999999999999999999999999999999999999999999999999999999999999999999999999999999999999999999999999999999999999999999999999999999999999999999999999999999999999999999999999999999999999999999999999999999999999999999999999999999999999999999999999999999999999999999999999999999999999999999999999999999999999999999999999999999999999999999999999999999999999999999999999999999999999999999999999999999999999999999999999999999999999999999999999999999999999
922211  244A 110240249210100DALLAS CO SHERIFF S OFC           1047     0  527032 20000010111111001111000001   21999999999999999999999999999999999999999999999999999   3  0  0 0  12400 800   1  0  0 0  1   0   0  0  0  0 0 0   0   0  0  0  00 0   0   0  0 0  00 0   0   0  0 0  00 0   0   0  0  0  00 0   0   0  0 0  00 0   0   0  0 0  000000   2555   1825    7301010031 00   0   0  0  0 013333300  00  0  10   7  1  0  0 0 0 0  012000000000000000000000403   48   16   1  23   0   16  1  23   0   0 0   0  0    0  0   0  0   0  0   0  0   0 0   0 0  0 0  0  0 0 0   0   0   16   1  17   6   12   1   7   2   4  0 10   4   0  0  0  0  0 0  0  0 0000 00 0 0  0 0  0  0100186 93087 35000 3500015000150001000012000     0     0      0      0    534000     0   30000   25000   30000       000 0000000000000000000000000   0   0    000000000000000000000000000000  0  0999999999999999999999999999999999999999999999999999999999999999999999999999999999999999999999999999999999999999999999999999999999999999999999999999999999999999999999999999999999999999999999999999999999999999999999999999999999999999999999999999999999999999999999999999999999999999999999999999999999999999999999999999999999999999999999999999999999999999999999999999999999999999999999999999999999999999999999999999999999999999999999999999999999999999999999999999999999999999999999999999999999999999999999999999999999999999999999999999999999999999999999999999999999999999999999999
922211  244A 110250255210100COUNTY SHERIFFS DEPT              1049     0  538733 40000010111101001111000001   15999999999999999999999999999999999999999999999999999   4  0  0 0  12300 700   2  0  0 0  0   0   0  0  0  0 0 0   0   0  0  0  00 0   0   0  0 0  00 0   0   0  0 0  00 0   0   0  0  0  00 0   0   0  0 0  00 0   0   0  0 0  000000   3650   2190   14601111011 00   0   0  0  0 013113100  00  0   9   6  0  0  0 0 0 0  012000000000000000000000402   60   15   0  10   4   15  0  10   4   0 0   0  0    0  0   0  0   0  0   0  0   0 0   0 0  0 0  0  0 0 0   0   0   15   0  12   2   15   0  12   2   0  0  0   0   0  0  0  0  0 0  0  0 0000 00 0 0  0 0  0  0100185 93086 35000 3500018800290001833019000 18330 18330      0      0    301247     0   19228       0       0       000 0000000000000000000000000   0   0    000000000000000000000000000000  0  0999999999999999999999999999999999999999999999999999999999999999999999999999999999999999999999999999999999999999999999999999999999999999999999999999999999999999999999999999999999999999999999999999999999999999999999999999999999999999999999999999999999999999999999999999999999999999999999999999999999999999999999999999999999999999999999999999999999999999999999999999999999999999999999999999999999999999999999999999999999999999999999999999999999999999999999999999999999999999999999999999999999999999999999999999999999999999999999999999999999999999999999999999999999999999999999999
922211  244A 110260262210100SHERIFF S DEPT                    1051524000  479473 40001010111111001111100001    8999999999999999999999999999999999999999999999999999   1  0  0 0  010001900   1  0  0 0  011002000  1  0  0 0 012002100  1  0  00 0   0   0  0 0  00 0   0   0  0 0  00 0   0   0  0  0  00 0   0   0  0 0  00 0   0   0  0 0  000000   8900   1400   75001111031 00   0   0  0  0 013331100  00  0  10   2  1  0  0 0 0 1  011000000000000000000000403    0   12   0  10   0   12  0   9   0   0 0   0  0    0  0   0  0   0  0   0  0   0 0   0 0  0 0  0  0 0 0   0   0   12   0   4   5   11   0   4   4   1  0  0   1   0  0  0  0  0 0  0  0 0000 00 0 0  0 0  0  0100185100186 35000 350001860018600    0    0 15600 15600    416   2570    339460     0   84920   16000       0       000 0000000000000000000000000   0   0    000000000000000000000000000000  0  0999999999999999999999999999999999999999999999999999999999999999999999999999999999999999999999999999999999999999999999999999999999999999999999999999999999999999999999999999999999999999999999999999999999999999999999999999999999999999999999999999999999999999999999999999999999999999999999999999999999999999999999999999999999999999999999999999999999999999999999999999999999999999999999999999999999999999999999999999999999999999999999999999999999999999999999999999999999999999999999999999999999999999999999999999999999999999999999999999999999999999999999999999999999999999999999999
922211  244A 110310315210100COUNTY SHERIFFS DEPT              1061     0  239483 40000011111111001111111101   13999999999999999999999999999999999999999999999999999   3  4  0 0  1   0   0   0  0  0 0  0   0   0  0  0  0 0 0   0   0  0  0  00 0   0   0  0 0  00 0   0   0  0 0  00 0   0   0  0  0  00 0   0   0  0 0  00 0   0   0  0 0  000000  12775   5475   73001101031 00   0   0  0  0 013313300  00  0   7   0  0  0  0 0 0 0  012000000000000000000000404   32    5   0   7   2    5  0   7   2   0 0   0  0    0  0   0  0   0  0   0  0   0 0   0 0  0 0  0  0 0 0   0   0    5   0   5   4    5   0   5   3   0  0  0   1   0  0  0  0  0 0  0  0 0000 00 0 0  0 0  0  0100185 93086 30000 3000018000205921624416244 15225 16244    453   3696    228860     0   87000   14703       0       000 0000000000000000000000000   0   0    000000000000000000000000000000  0  0999999999999999999999999999999999999999999999999999999999999999999999999999999999999999999999999999999999999999999999999999999999999999999999999999999999999999999999999999999999999999999999999999999999999999999999999999999999999999999999999999999999999999999999999999999999999999999999999999999999999999999999999999999999999999999999999999999999999999999999999999999999999999999999999999999999999999999999999999999999999999999999999999999999999999999999999999999999999999999999999999999999999999999999999999999999999999999999999999999999999999999999999999999999999999999999999
922211  244A 110350352210100SHERIFF DEPT                      1069218000  802651 10001110111110000111000001   30999999999999999999999999999999999999999999999999999  10  0  0 0  02300 700  10  0  0 0  0   0   0  0  0  0 0 0   0   0  0  0  00 0   0   0  0 0  00 0   0   0  0 0  00 0   0   0  0  0  00 0   0   0  0 0  00 0   0   0  0 0  0000009999999  3000099999991000011 00   0   0  0  0 013333300  00  0  23   6  0  0  0 0 0 0  011000000000000000000000403   60   30  17  58   2   30 17  58   2   0 0   0  0    0  0   0  0   0  0   0  0   0 0   0 0  0 0  0  0 0 0   0   0   46   1  10  50   45   1  10  48   1  0  0   2   0  0  0  0  0 0  0  0 0000 00 0 0  0 0  0  0 10186123186 35000 3500027000270002600026000 15500 1550099999999999999   2500000     0  250000   50000       0       000 0000000000000000000000000   0   0    000000000000000000000000000000  0  0999999999999999999999999999999999999999999999999999999999999999999999999999999999999999999999999999999999999999999999999999999999999999999999999999999999999999999999999999999999999999999999999999999999999999999999999999999999999999999999999999999999999999999999999999999999999999999999999999999999999999999999999999999999999999999999999999999999999999999999999999999999999999999999999999999999999999999999999999999999999999999999999999999999999999999999999999999999999999999999999999999999999999999999999999999999999999999999999999999999999999999999999999999999999999999999999
922211  2044 110370376270300COUNTY SHERIFFS DEPT              1073100000 6763871 10001110111111001111001101  367999999999999999999999999999999999999999999999999999  20  3  0 0  42230 630  19  3  0 0  3   0   0  0  0  0 0 0   0   0  0  0  00 0   0   0  0 0  00 0   0   0  0 0  00 0   0   0  0  0  00 0   0   0  0 0  00 0   0   0  0 0  000000  46124  43818   23061111031 00   0   0  0  0 013111100  00  0 118  98 19  0  3 1 1 0  020231000001001000010000403    0  392   0 102   0  392  0 102   0   8 0   7  0  195  0   4  0   6  0  41  0 143 0  37 0 40 0 13  0 0 0   0   0  339  53  23  79  282  28  13  56  57 25 10  23   0  0  0  0  0 0  0  0 0000 00 0 0  0 0  0  0100185 93086 36377 4415820300246271747221257 16660 16660      0      0  12037960     0 5473630  249000  200000       020 0000001111012111000000001 280   0  44021010000033333113331121111121  5  3999999999999999999999999999999999999999999999999999999999999999999999999999999999999999999999999999999999999999999999999999999999999999999999999999999999999999999999999999999999999999999999999999999999999999999999999999999999999999999999999999999999999999999999999999999999999999999999999999999999999999999999999999999999999999999999999999999999999999999999999999999999999999999999999999999999999999999999999999999999999999999999999999999999999999999999999999999999999999999999999999999999999999999999999999999999999999999999999999999999999999999999999999999999999999999999999
922211  244A 110410412210100LEE CO SHERIFF S OFF              1081     0  808392 20001010111111001111000001   26999999999999999999999999999999999999999999999999999   3  0  0 0  02300 700   3  0  0 0  0   0   0  0  0  0 0 0   0   0  0  0  00 0   0   0  0 0  00 0   0   0  0 0  00 0   0   0  0  0  00 0   0   0  0 0  00 0   0   0  0 0  000000  54750   7300  474501111031 00   0   0  0  0 011111110  00  0   9   7  0  0  0 0 0 0  112000000000000000000000400    0   25   0  27   0   23  0  23   0   0 0   0  0    0  0   0  0   0  0   0  0   0 0   0 0  0 0  0  0 0 0   0   0   21   2  11  12   19   2   6   6   2  0  5   6   0  0  0  0  0 0  0  0 0000 00 0 0  0 0  0  0100186 93087 35000 3500017448174481560016200 15600 15600    600   6200    829250     7  182500   30000       0       000 0000000000000000000000000   0   0    000000000000000000000000000000  0  0999999999999999999999999999999999999999999999999999999999999999999999999999999999999999999999999999999999999999999999999999999999999999999999999999999999999999999999999999999999999999999999999999999999999999999999999999999999999999999999999999999999999999999999999999999999999999999999999999999999999999999999999999999999999999999999999999999999999999999999999999999999999999999999999999999999999999999999999999999999999999999999999999999999999999999999999999999999999999999999999999999999999999999999999999999999999999999999999999999999999999999999999999999999999999999999999
922211  244A 110450459210100COUNTY SHERIFFS DEPT              1089344000 2336801 10000010111111001111000001   58999999999999999999999999999999999999999999999999999   6  0  0 0  12300 700   4  0  0 0  1   0   0  0  0  0 0 0   0   0  0  0  00 0   0   0  0 0  00 0   0   0  0 0  00 0   0   0  0  0  00 0   0   0  0 0  00 0   0   0  0 0  000000  28808   4968  238401111011 00   0   0  0  0 0211331013570  0  45  18  8  0  0 0 0 0  011000000000000000000000402   20   58   0  22   1   58  0  22   1   0 0   0  0    0  0   0  0   0  0   0  0   0 0   0 0  0 0  0  0 0 0   0   0   54   4   1  22   52   3   1  16   2  1  0   6   0  0  0  0  0 0  0  0 0000 00 0 0  0 0  0  0100185 93086 37500 3750021091229632109121091 17118 17118   3705  56819   2022965    30  609881   91331       0       000 0000000000000000000000000   0   0    000000000000000000000000000000  0  0999999999999999999999999999999999999999999999999999999999999999999999999999999999999999999999999999999999999999999999999999999999999999999999999999999999999999999999999999999999999999999999999999999999999999999999999999999999999999999999999999999999999999999999999999999999999999999999999999999999999999999999999999999999999999999999999999999999999999999999999999999999999999999999999999999999999999999999999999999999999999999999999999999999999999999999999999999999999999999999999999999999999999999999999999999999999999999999999999999999999999999999999999999999999999999999999
922211  244A 110460466210100SHERIFF S DEPT                    1091     0  242153 40000000111111001111000001    7999999999999999999999999999999999999999999999999999   0  0  0 0  0   0   0   0  0  0 0  0   0   0  0  0  0 0 0   0   0  0  0  00 0   0   0  0 0  00 0   0   0  0 0  00 0   0   0  0  0  00 0   0   0  0 0  00 0   0   0  0 0  000000   4015    285   37301111031 00   0   0  0  0 013333100  00  0   5   2  1  0  0 0 0 0  011000000000000000000000403    0    8   0   8   0    8  0   8   0   0 0   0  0    0  0   0  0   0  0   0  0   0 0   0 0  0 0  0  0 0 0   0   0    6   2   6   2    5   2   6   1   1  0  0   1   0  0  0  0  0 0  0  0 0000 00 0 0  0 0  0  0100185 93086 10000 10500 9000 9500 7500 8500  7500  7500      0      0    152320     0   22848    8000       0       000 0000000000000000000000000   0   0    000000000000000000000000000000  0  0999999999999999999999999999999999999999999999999999999999999999999999999999999999999999999999999999999999999999999999999999999999999999999999999999999999999999999999999999999999999999999999999999999999999999999999999999999999999999999999999999999999999999999999999999999999999999999999999999999999999999999999999999999999999999999999999999999999999999999999999999999999999999999999999999999999999999999999999999999999999999999999999999999999999999999999999999999999999999999999999999999999999999999999999999999999999999999999999999999999999999999999999999999999999999999999999
922211  244A 110480480210100COUNTY SHERIFF S OFFICE           1095344000  715202 20000000111110001111000001   18999999999999999999999999999999999999999999999999999   0  0  0 0  0   0   0   0  0  0 0  0   0   0  0  0  0 0 0   0   0  0  0  00 0   0   0  0 0  00 0   0   0  0 0  00 0   0   0  0  0  00 0   0   0  0 0  00 0   0   0  0 0  000000   1200    800    4001111031 00   0   0  0  0 023133300  00  0   8   4  0  0  0 0 0 0  012000000000000000000000402   39   19   0  14   3   19  0  14   3   0 0   0  0    0  0   0  0   0  0   0  0   0 0   0 0  0 0  0  0 0 0   0   0   19   0   9   8   19   0   9   6   0  0  0   1   0  0  0  0  0 0  0  0 0000 00 0 1  0 0  0  0100185 93086 35000 35000    0    01850025100 15600 16400    310   3720    695000     0  125000       0       0       000 0000000000000000000000000   0   0    000000000000000000000000000000  0  0999999999999999999999999999999999999999999999999999999999999999999999999999999999999999999999999999999999999999999999999999999999999999999999999999999999999999999999999999999999999999999999999999999999999999999999999999999999999999999999999999999999999999999999999999999999999999999999999999999999999999999999999999999999999999999999999999999999999999999999999999999999999999999999999999999999999999999999999999999999999999999999999999999999999999999999999999999999999999999999999999999999999999999999999999999999999999999999999999999999999999999999999999999999999999999999999
922211  244A 110490497210100SHERIFF S DEPT                    1097516000 3777441 10000010011111001111000001  125999999999999999999999999999999999999999999999999999   8  0  0 0  12300 700   8  0  0 0  2   0   0  0  0  0 0 0   0   0  0  0  00 0   0   0  0 0  00 0   0   0  0 0  00 0   0   0  0  0  00 0   0   0  0 0  00 0   0   0  0 0  000000  45554   8623  369311111131 00   0   0  0  0 013311300  00  0  90  40  1  1  2 0 0 4  011000000000000000000000400    0  138   0 144   0  131  0 131   0   0 0   0  0    0  0   0  0   0  0   0  0   0 0   0 0  0 0  0  0 0 0   0   0  126   5  34  97  112   3  14  56  14  2 20  41   0  0  0  0  0 0  0  0 0000 00 0 0  0 0  0  0100185 93086 55440 5544019860308041714826616 15564 24132  21680 288771   6188725     0 1558750       0       0       000 0000000000000000000000000   0   0    000000000000000000000000000000  0  0999999999999999999999999999999999999999999999999999999999999999999999999999999999999999999999999999999999999999999999999999999999999999999999999999999999999999999999999999999999999999999999999999999999999999999999999999999999999999999999999999999999999999999999999999999999999999999999999999999999999999999999999999999999999999999999999999999999999999999999999999999999999999999999999999999999999999999999999999999999999999999999999999999999999999999999999999999999999999999999999999999999999999999999999999999999999999999999999999999999999999999999999999999999999999999999999
922211  244A 110510518210100SHERIFF S DEPARTMENT              1101524000 2154181 10001110111111001111000001  106999999999999999999999999999999999999999999999999999   0 12  0 0  12400 800   0 10  0 0  1   0   0  0  0  0 0 0   0   0  0  0  00 0   0   0  0 0  00 0   0   0  0 0  00 0   0   0  0  0  00 0   0   0  0 0  00 0   0   0  0 0  0000009999999  3650099999991111011 00   0   0  0  0 0111311013570  0  35  10  3  0  0 0 0 1  012000000000000000000000410    0  106   0  76   0  106  0  76   0   0 0   0  0    0  0   0  0   0  0   0  0   0 0   0 0  0 0  0  0 0 0   0   0   79  27  29  47   40  13  15  24  39 14 14  23   0  0  0  0  0 0  0  0 0000 00 0 0  0 0  0  0100185 93086 42500 4250017992256081631923227 16319 16319      0      0   1905761     0  138000  191625    2000       000 0000000000000000000000000   0   0    000000000000000000000000000000  0  0999999999999999999999999999999999999999999999999999999999999999999999999999999999999999999999999999999999999999999999999999999999999999999999999999999999999999999999999999999999999999999999999999999999999999999999999999999999999999999999999999999999999999999999999999999999999999999999999999999999999999999999999999999999999999999999999999999999999999999999999999999999999999999999999999999999999999999999999999999999999999999999999999999999999999999999999999999999999999999999999999999999999999999999999999999999999999999999999999999999999999999999999999999999999999999999999
922211  244A 110530532210100PERRY CO SHERIFF S OFC            1105     0  145694 70241010110111001111000001    4999999999999999999999999999999999999999999999999999   0  0  0 0  0   0   0   0  0  0 0  0   0   0  0  0  0 0 0   0   0  0  0  00 0   0   0  0 0  00 0   0   0  0 0  00 0   0   0  0  0  00 0   0   0  0 0  00 0   0   0  0 0  000000  21900   9500  124001101031 00   0   0  0  0 011131101 380  0   3   1  0  0  0 0 0 0  012000000000000000000000400    0    4   0   5   0    4  0   5   0   0 0   0  0    0  0   0  0   0  0   0  0   0 0   0 0  0 0  0  0 0 0   0   0    4   0   4   1    1   0   0   0   3  0  4   1   0  0  0  0  0 0  0  0 0000 00 0 0  0 0  0  0100185 93086 35000 3500016000160001400014000 14000 14000      0      0    160000     0   12000    6000    4000       000 0000000000000000000000000   0   0    000000000000000000000000000000  0  0999999999999999999999999999999999999999999999999999999999999999999999999999999999999999999999999999999999999999999999999999999999999999999999999999999999999999999999999999999999999999999999999999999999999999999999999999999999999999999999999999999999999999999999999999999999999999999999999999999999999999999999999999999999999999999999999999999999999999999999999999999999999999999999999999999999999999999999999999999999999999999999999999999999999999999999999999999999999999999999999999999999999999999999999999999999999999999999999999999999999999999999999999999999999999999999999
922211  244A 110560562210100SHERIFF S DEPT                    1111     0  199085 98000010101111001111100001    4999999999999999999999999999999999999999999999999999   2  0  0 0  1   0   0   0  0  0 0  0   0   0  0  0  0 0 0   0   0  0  0  00 0   0   0  0 0  00 0   0   0  0 0  00 0   0   0  0  0  00 0   0   0  0 0  00 0   0   0  0 0  000000   3650   2555   10951001031 00   0   0  0  0 013333300  00  0   4   1  0  0  0 0 0 0  012000000000000000000000400    0    5   0   6   0    5  0   6   0   0 0   0  0    0  0   0  0   0  0   0  0   0 0   0 0  0 0  0  0 0 0   0   0    4   1   3   3    3   1   3   3   1  0  0   0   0  0  0  0  0 0  0  0 0000 00 0 0  0 0  0  0100186 93087 35000 3500022000220001500017000 15000 15000      0      0    110000     0   13000       0       0       000 0000000000000000000000000   0   0    000000000000000000000000000000  0  0999999999999999999999999999999999999999999999999999999999999999999999999999999999999999999999999999999999999999999999999999999999999999999999999999999999999999999999999999999999999999999999999999999999999999999999999999999999999999999999999999999999999999999999999999999999999999999999999999999999999999999999999999999999999999999999999999999999999999999999999999999999999999999999999999999999999999999999999999999999999999999999999999999999999999999999999999999999999999999999999999999999999999999999999999999999999999999999999999999999999999999999999999999999999999999999999
922211  244A 110590593210100COUNTY SHERIFFS DEPT              1117100000  811992 20001111111111001111000001   44999999999999999999999999999999999999999999999999999   0  0  0 0  02300 700   0  0  0 0  0   0   0  0  0  0 0 0   0   0  0  0  00 0   0   0  0 0  00 0   0   0  0 0  00 0   0   0  0  0  00 0   0   0  0 0  00 0   0   0  0 0  000000  93600   6455  871451101031 00   0   0  0  0 022222230  00  0  34  11  0  0  0 0 0 0  012000000000000000000000400    0   44   0  17   0   44  0  17   0   0 0   0  0    0  0   0  0   0  0   0  0   0 0   0 0  0 0  0  0 0 0   0   0   44   0   6  11   43   0   6   9   1  0  0   2   0  0  0  0  0 0  0  0 0000 00 0 0  0 0  0  0100185 93086 45960 4596021478316931755225742 17552 17552      0      0   1016974     0   61018  749633       0       000 0000000000000000000000000   0   0    000000000000000000000000000000  0  0999999999999999999999999999999999999999999999999999999999999999999999999999999999999999999999999999999999999999999999999999999999999999999999999999999999999999999999999999999999999999999999999999999999999999999999999999999999999999999999999999999999999999999999999999999999999999999999999999999999999999999999999999999999999999999999999999999999999999999999999999999999999999999999999999999999999999999999999999999999999999999999999999999999999999999999999999999999999999999999999999999999999999999999999999999999999999999999999999999999999999999999999999999999999999999999999
922211  244A 110610615210100CO SHERIFF S OFFICE               1121     0  765121 10000111111111001111001001   18999999999999999999999999999999999999999999999999999   2  0  0 0  0   0   0   0  0  0 0  0   0   0  0  0  0 0 0   0   0  0  0  00 0   0   0  0 0  00 0   0   0  0 0  00 0   0   0  0  0  00 0   0   0  0 0  00 0   0   0  0 0  000000   4000   3600    4001011031 00   0   0  0  0 013313310  00  0  13   8  1  0  0 0 0 0  012000000000000000000000400    0   26   0  20   0   26  0  20   0   0 0   0  0    0  0   0  0   0  0   0  0   0 0   0 0  0 0  0  0 0 0   0   0   23   3   9  11   20   3   8  11   3  0  0   0   0  0  1  0  0 0  1  0 0000 00 0 0  0 0  0  0 70185 63086 17100 1710016800168001620016200 12000 12000    550   4950    787522     0  194816       0    1800       000 0000000000000000000000000   0   0    000000000000000000000000000000  0  0999999999999999999999999999999999999999999999999999999999999999999999999999999999999999999999999999999999999999999999999999999999999999999999999999999999999999999999999999999999999999999999999999999999999999999999999999999999999999999999999999999999999999999999999999999999999999999999999999999999999999999999999999999999999999999999999999999999999999999999999999999999999999999999999999999999999999999999999999999999999999999999999999999999999999999999999999999999999999999999999999999999999999999999999999999999999999999999999999999999999999999999999999999999999999999999999
922211  244A 110640646210100COUNTY SHERIFFS DEPT              1127100000  675442 20001010111111001111000001   30999999999999999999999999999999999999999999999999999   3  0  0 0  12400 800   3  0  0 0  1   0   0  0  0  0 0 0   0   0  0  0  00 0   0   0  0 0  00 0   0   0  0 0  00 0   0   0  0  0  00 0   0   0  0 0  00 0   0   0  0 0  000000  12775   5475   73001111031 00   0   0  0  0 033333300  00  0   7   4  1  0  0 0 0 0  020000000000000000000000402   40   34   0   2   2   34  0   2   2   0 0   0  0    0  0   0  0   0  0   0  0   0 0   0 0  0 0  0  0 0 0   0   0   33   1   1   3   31   1   1   3   2  0  0   0   0  0  0  0  0 0  0  0 0000 00 0 0  0 0  0  0100185 93086 35000 3500019000290001877219000 18434 18772      0      0    850951     0  227057   40000       0       000 0000000000000000000000000   0   0    000000000000000000000000000000  0  0999999999999999999999999999999999999999999999999999999999999999999999999999999999999999999999999999999999999999999999999999999999999999999999999999999999999999999999999999999999999999999999999999999999999999999999999999999999999999999999999999999999999999999999999999999999999999999999999999999999999999999999999999999999999999999999999999999999999999999999999999999999999999999999999999999999999999999999999999999999999999999999999999999999999999999999999999999999999999999999999999999999999999999999999999999999999999999999999999999999999999999999999999999999999999999999999
922211  244A 120020029260100DAPHNE TOWN POLICE DEPT           1003516000   41771 51281110111111001100001003    6999999999999999999999999999999999999999999999999999   2  0  0 0  014002200   2  0  0 0  0   0   0  0  0  0 0 0   0   0  0  0  00 014002200  2 0  00 01600 200  1 0  00 02200 700  2  0  00 0 7001400  2 0  00 0   0   0  0 0  000111   3600   3300    3001011012 03   7   3  1  1 013333100  00  0   4   0  0  0  0 0 0 0  020000000000000000000000402   99    9   0   5   3    9  0   5   3   0 0   0  0    0  0   0  0   0  0   0  0   0 0   0 0  0 0  0  0 0 0   0   0    9   0   3   5    7   0   3   4   2  0  0   1   0  0  0  0  0 0  0  0 0000 00 0 0  0 0  0  0100185 93086 24900 24900    0    01860018600 15900 15900      0      0    227870     0   25000   32000       0       000 0000000000000000000000000   0   0    000000000000000000000000000000  0  0999999999999999999999999999999999999999999999999999999999999999999999999999999999999999999999999999999999999999999999999999999999999999999999999999999999999999999999999999999999999999999999999999999999999999999999999999999999999999999999999999999999999999999999999999999999999999999999999999999999999999999999999999999999999999999999999999999999999999999999999999999999999999999999999999999999999999999999999999999999999999999999999999999999999999999999999999999999999999999999999999999999999999999999999999999999999999999999999999999999999999999999999999999999999999999999999
922211  244A 120030051260100LOUISVILLE TOWN P D               1005     0    8063 90641110111111001101100003    3999999999999999999999999999999999999999999999999999   1  0  0 0  02200 600   1  0  0 0  0   0   0  0  0  0 0 0   0   0  0  0  00 0   0   0  0 0  00 0   0   0  0 0  00 0   0   0  0  0  00 0   0   0  0 0  00 0   0   0  0 0  0000009999999   109599999991001033 31   3   0  0  0 0111311013570  0   1   0  0  0  0 0 0 0  020000000000000000000000480    0    3   0   0   0    3  0   0   0   0 0   0  0    0  0   0  0   0  0   0  0   0 0   0 0  0 0  0  0 0 0   0   0    3   0   0   0    3   0   0   0   0  0  0   0   0  0  0  0  0 0  0  0 0000 00 0 0  0 0  0  0100186 93087 16640 16640    0    01170012700 11000 11000      0      0     40000     0   4000099999999999999999999999900 0000000000000000000000000   0   0    000000000000000000000000000000  0  0999999999999999999999999999999999999999999999999999999999999999999999999999999999999999999999999999999999999999999999999999999999999999999999999999999999999999999999999999999999999999999999999999999999999999999999999999999999999999999999999999999999999999999999999999999999999999999999999999999999999999999999999999999999999999999999999999999999999999999999999999999999999999999999999999999999999999999999999999999999999999999999999999999999999999999999999999999999999999999999999999999999999999999999999999999999999999999999999999999999999999999999999999999999999999999999999
922211  244A 120040027260100CENTREVILLE POLICE DEPT           1007     0   24333 90641110111111001110111003    4999999999999999999999999999999999999999999999999999   1  0  0 0  02300 800   1  0  0 0  0   0   0  0  0  0 0 0   0   0  0  0  00 0 8001700  1 0  00 017002300  2 0  00 02300 800  1  0  00 0   0   0  0 0  00 0   0   0  0 0  0000119999999   182599999991000031 00   0   0  0  0 013113300  00  0   4   0  0  0  0 0 0 0  012000000000000000000000480    0    4   0   0   0    4  0   0   0   0 0   0  0    0  0   0  0   0  0   0  0   0 0   0 0  0 0  0  0 0 0   0   0    4   0   0   0    4   0   0   0   0  0  0   0   0  0  0  0  0 0  0  0 0000 00 0 0  0 0  0  0100185 93086 19000 19000    0    01480014800 14800 14800      0      0     59596     0    3804   20000       0       000 0000000000000000000000000   0   0    000000000000000000000000000000  0  0999999999999999999999999999999999999999999999999999999999999999999999999999999999999999999999999999999999999999999999999999999999999999999999999999999999999999999999999999999999999999999999999999999999999999999999999999999999999999999999999999999999999999999999999999999999999999999999999999999999999999999999999999999999999999999999999999999999999999999999999999999999999999999999999999999999999999999999999999999999999999999999999999999999999999999999999999999999999999999999999999999999999999999999999999999999999999999999999999999999999999999999999999999999999999999999999
922211  244A 120040035260100POLICE DEPT                       1007     0   12013 90641111111110000000001003    2999999999999999999999999999999999999999999999999999   0  0  0 0  0   0   0   0  0  0 0  0   0   0  0  0  0 0 0   0   0  0  0  00 0   0   0  0 0  00 0   0   0  0 0  00 0   0   0  0  0  00 0   0   0  0 0  00 0   0   0  0 0  000000   1000    650    3501111031 00   0   0  0  0 013313330  00  0   1   0  0  0  0 0 0 0  012000000000000000000000960    0    2   0   0   0    1  0   0   0   0 0   0  0    0  0   0  0   0  0   0  0   0 0   0 0  0 0  0  0 0 0   0   0    1   0   0   0    1   0   0   0   0  0  0   0   0  0  0  0  0 0  0  0 0000 00 0 0  0 0  0  0 10186123186  9500 15000    0    0    0    0     0     0      0      0     16500    10    8500    3000       0       000 0000000000000000000000000   0   0    000000000000000000000000000000  0  0999999999999999999999999999999999999999999999999999999999999999999999999999999999999999999999999999999999999999999999999999999999999999999999999999999999999999999999999999999999999999999999999999999999999999999999999999999999999999999999999999999999999999999999999999999999999999999999999999999999999999999999999999999999999999999999999999999999999999999999999999999999999999999999999999999999999999999999999999999999999999999999999999999999999999999999999999999999999999999999999999999999999999999999999999999999999999999999999999999999999999999999999999999999999999999999999
922211  244A 120070024260100GEORGIANA POLICE DEPT             1013     0   19384141961110101111001000000003    5999999999999999999999999999999999999999999999999999   1  0  0 0  1   0   0   0  0  0 0  0   0   0  0  0  0 0 0   0   0  0  0  00 0 6001800  0 1  00 01800 200  0 2  00 0 200 600  0  1  00 0   0   0  0 0  00 0   0   0  0 0  000110   5475   1825   36501101032 02   8   1  0  0 0113333013570  0   2   1  0  0  0 0 0 0  012000000000000000000000503   80    4   3   2   0    4  3   2   0   0 0   0  0    0  0   0  0   0  0   0  0   0 0   0 0  0 0  0  0 0 0   0   0    5   2   2   0    4   1   1   0   1  1  1   0   0  0  0  0  0 0  0  0 0000 00 0 0  0 0  0  0100185 93086 15500 1550014560145601456014560 14560 14560   2600  23400    119250     0   13115       0       0       000 0000000000000000000000000   0   0    000000000000000000000000000000  0  0999999999999999999999999999999999999999999999999999999999999999999999999999999999999999999999999999999999999999999999999999999999999999999999999999999999999999999999999999999999999999999999999999999999999999999999999999999999999999999999999999999999999999999999999999999999999999999999999999999999999999999999999999999999999999999999999999999999999999999999999999999999999999999999999999999999999999999999999999999999999999999999999999999999999999999999999999999999999999999999999999999999999999999999999999999999999999999999999999999999999999999999999999999999999999999999999
922211  244A 120070040260100MCKENZIE TOWN P D                 1013     0    6524141961110111110000101000003    2999999999999999999999999999999999999999999999999999   1  0  0 0  0   0   0   0  0  0 0  0   0   0  0  0  0 0 0   0   0  0  0  00 0   0   0  0 0  00 0   0   0  0 0  00 0   0   0  0  0  00 0   0   0  0 0  00 0   0   0  0 0  0000009999999    73099999991001031 00   0   0  0  0 013131100  00  0   2   0  0  0  0 0 0 0  020000000000000000000000404   32    2   1   0   2    2  1   0   2   0 0   0  0    0  0   0  0   0  0   0  0   0 0   0 0  0 0  0  0 0 0   0   0    3   0   2   0    3   0   2   0   0  0  0   0   0  0  0  0  0 0  0  0 0000 00 0 0  0 0  0  0100186 93087 12480 12480    0    0 7800 7800     0     0      0      0     50000     0    6000       0       0       000 0000000000000000000000000   0   0    000000000000000000000000000000  0  0999999999999999999999999999999999999999999999999999999999999999999999999999999999999999999999999999999999999999999999999999999999999999999999999999999999999999999999999999999999999999999999999999999999999999999999999999999999999999999999999999999999999999999999999999999999999999999999999999999999999999999999999999999999999999999999999999999999999999999999999999999999999999999999999999999999999999999999999999999999999999999999999999999999999999999999999999999999999999999999999999999999999999999999999999999999999999999999999999999999999999999999999999999999999999999999999
922211  244A 120080015250100CITY POLICE DEPARTMENT            1015 45000  293652 63601110111111001110000003   82999999999999999999999999999999999999999999999999999  18  0  0 0  02300 700  15  0  0 0  0   0   0  0  0  0 0 0   0   0  0  0  00 0   0   0  0 0  00 0   0   0  0 0  00 0   0   0  0  0  00 0   0   0  0 0  00 0   0   0  0 0  000000  96500  60000  365001111031 00   0   0  0  0 0111111013570  0  22  28  0  3  0 0 0 0  020000000000000000000000402   40   81   0  29   1   76  0  27   1   0 0   0  0    0  0   0  0   0  0   0  0   0 0   0 0  0 0  0  0 0 0   0   0   72   4   5  23   68   4   4  21   4  0  1   2   0  0  0  0  0 0  0  0 0000 00 0 0  0 0  0  0100185 93086 29255 3871723800238001890018900 16500 16500    450   5000   2180000     0  327000   30000       0       000 0000000000000000000000000   0   0    000000000000000000000000000000  0  0999999999999999999999999999999999999999999999999999999999999999999999999999999999999999999999999999999999999999999999999999999999999999999999999999999999999999999999999999999999999999999999999999999999999999999999999999999999999999999999999999999999999999999999999999999999999999999999999999999999999999999999999999999999999999999999999999999999999999999999999999999999999999999999999999999999999999999999999999999999999999999999999999999999999999999999999999999999999999999999999999999999999999999999999999999999999999999999999999999999999999999999999999999999999999999999999
922211  244A 120080049250100POLICE DEPARTMENT                 1015 45000   97952 63601110111110001110000003   20999999999999999999999999999999999999999999999999999   3  0  0 0  12300 700   3  0  0 0  1   0   0  0  0  0 0 0   0   0  0  0  00 0   0   0  0 0  00 0   0   0  0 0  00 0   0   0  0  0  00 0   0   0  0 0  00 0   0   0  0 0  000000  11000   6600   44001111011 00   0   0  0  0 013133300  00  0  11   2  0  0  0 0 0 0  020000000000000000000000413    0   20   0   6   1   18  0   6   0   0 0   0  0    0  0   0  0   0  0   0  0   0 0   0 0  0 0  0  0 0 0   0   0   17   1   2   4   17   1   1   4   0  0  1   0   0  0  0  0  0 0  0  0 0000 00 0 0  0 0  0  0100185 93086 16807 2414914415201971337518658 13375 18658   1000  11000    500200    22   97800    2200       0       000 0000000000000000000000000   0   0    000000000000000000000000000000  0  0999999999999999999999999999999999999999999999999999999999999999999999999999999999999999999999999999999999999999999999999999999999999999999999999999999999999999999999999999999999999999999999999999999999999999999999999999999999999999999999999999999999999999999999999999999999999999999999999999999999999999999999999999999999999999999999999999999999999999999999999999999999999999999999999999999999999999999999999999999999999999999999999999999999999999999999999999999999999999999999999999999999999999999999999999999999999999999999999999999999999999999999999999999999999999999999999
922211  244A 120080056260100OHATCHEE TN POLICE DEPT           1015 45000    9282 63601110111111001000000003    3999999999999999999999999999999999999999999999999999   1  0  0 0  02300 730   1  0  0 0  01930 400  1  0  0 0 0 7301830  1  0  00 0   0   0  0 0  00 0   0   0  0 0  00 0   0   0  0  0  00 0   0   0  0 0  00 0   0   0  0 0  000000   7300   3650   36501000031 00   0   0  0  0 013113300  00  0   4   1  0  0  0 0 0 0  020000000000000000000000482   78    2   0   0   7    2  0   0   7   0 0   0  0    0  0   0  0   0  0   0  0   0 0   0 0  0 0  0  0 0 0   0   0    2   0   7   0    2   0   7   0   0  0  0   0   0  0  0  0  0 0  0  0 0000 00 0 0  0 0  0  0100185 93086 15500 1550013250132501180011800 11800 11800      0      0     48880     0    3120    9900   12000       000 0000000000000000000000000   0   0    000000000000000000000000000000  0  012030 400  1  0  0  0  0999999999999999999999999999999999999999999999999999999999999999999999999999999999999999999999999999999999999999999999999999999999999999999999999999999999999999999999999999999999999999999999999999999999999999999999999999999999999999999999999999999999999999999999999999999999999999999999999999999999999999999999999999999999999999999999999999999999999999999999999999999999999999999999999999999999999999999999999999999999999999999999999999999999999999999999999999999999999999999999999999999999999999999999999999999999999999999999999999999999999999999999999
922211  244A 120080072260100PIEDMONT POLICE DEPT              1015 45000   55362 63601110111111001110001003   13999999999999999999999999999999999999999999999999999   3  0  0 0  02300 700   3  0  0 0  0   0   0  0  0  0 0 0   0   0  0  0  00 0   0   0  0 0  00 0   0   0  0 0  00 0   0   0  0  0  00 0   0   0  0 0  00 0   0   0  0 0  000000   7200   6000   12001011011 00   0   0  0  0 013131100  00  0   5   1  0  0  0 0 0 0  020000000000000000000000404   96   13   0   2   3   13  0   2   3   0 0   0  0    0  0   0  0   0  0   0  0   0 0   0 0  0 0  0  0 0 0   0   0   11   2   1   4   11   1   1   3   0  1  0   0   0  0  0  1  0 0  0  1 0000 00 0 0  0 0  0  0100185 93086 20000 2500015000200001400017000 13936 15000    623   7195    222222    10    6500   23000    2500       000 0000000000000000000000000   0   0    000000000000000000000000000000  0  0999999999999999999999999999999999999999999999999999999999999999999999999999999999999999999999999999999999999999999999999999999999999999999999999999999999999999999999999999999999999999999999999999999999999999999999999999999999999999999999999999999999999999999999999999999999999999999999999999999999999999999999999999999999999999999999999999999999999999999999999999999999999999999999999999999999999999999999999999999999999999999999999999999999999999999999999999999999999999999999999999999999999999999999999999999999999999999999999999999999999999999999999999999999999999999999999
922211  244A 120080080260100WEAVER TOWN POLICE DEPT           1015 45000   29302 63601110111111101100100103    8999999999999999999999999999999999999999999999999999   2  0  0 0  02400 800   2  0  0 0  0   0   0  0  0  0 0 0   0   0  0  0  00 0   0   0  0 0  00 0   0   0  0 0  00 0   0   0  0  0  00 0   0   0  0 0  00 0   0   0  0 0  000000   9125   6387   27381111021 00   0   0  0  0 013333300  00  0   3   1  0  0  0 0 0 0  020000000000000000000000403   16    6   2   0   0    6  2   0   0   0 0   0  0    0  0   0  0   0  0   0  0   0 0   0 0  0 0  0  0 0 0   0   0    8   0   0   0    8   0   0   0   0  0  0   0   0  0  0  0  0 0  0  0 0000 00 0 0  0 0  0  0100185 93086 17000 17000    0    01200012000 11212 11212      0      0    127255     0   58130       0       0       000 0000000000000000000000000   0   0    000000000000000000000000000000  0  0999999999999999999999999999999999999999999999999999999999999999999999999999999999999999999999999999999999999999999999999999999999999999999999999999999999999999999999999999999999999999999999999999999999999999999999999999999999999999999999999999999999999999999999999999999999999999999999999999999999999999999999999999999999999999999999999999999999999999999999999999999999999999999999999999999999999999999999999999999999999999999999999999999999999999999999999999999999999999999999999999999999999999999999999999999999999999999999999999999999999999999999999999999999999999999999999
922211  244A 120130034260100POLICE DEPT                       1025     0   19113 90641111111111001001101003    6999999999999999999999999999999999999999999999999999   0  2  0 0  02300 700   1  0  0 0  0   0   0  0  0  0 0 0   0   0  0  0  00 0   0   0  0 0  00 0   0   0  0 0  00 0   0   0  0  0  00 0   0   0  0 0  00 0   0   0  0 0  000000   2955   1130   18251111031 00   0   0  0  0 013111100  00  0   4   1  0  0  0 0 0 0  011000000000000000000000424    0    5   0   0   0    5  0   0   0   0 0   0  0    0  0   0  0   0  0   0  0   0 0   0 0  0 0  0  0 0 0   0   0    5   0   0   0    3   0   0   0   2  0  0   0   0  0  0  0  0 0  0  0 0000 00 0 0  0 0  0  0100186 93087 24400 244001618318797    0    0 16183 18797      0      0    125710     0    1000    4000       0       000 0000000000000000000000000   0   0    000000000000000000000000000000  0  0999999999999999999999999999999999999999999999999999999999999999999999999999999999999999999999999999999999999999999999999999999999999999999999999999999999999999999999999999999999999999999999999999999999999999999999999999999999999999999999999999999999999999999999999999999999999999999999999999999999999999999999999999999999999999999999999999999999999999999999999999999999999999999999999999999999999999999999999999999999999999999999999999999999999999999999999999999999999999999999999999999999999999999999999999999999999999999999999999999999999999999999999999999999999999999999999
922211  244A 120130042260100JACKSON POLICE DEPT               1025     0   60413 90641110111111001000001003   14999999999999999999999999999999999999999999999999999   3  0  0 0  02200 600   3  0  0 0  0   0   0  0  0  0 0 0   0   0  0  0  00 0   0   0  0 0  00 0   0   0  0 0  00 0   0   0  0  0  00 0   0   0  0 0  00 0   0   0  0 0  000000  12245   2700   95451011012 01   6   0  0  0 013133110  00  0   4   2  0  0  0 0 0 0  020000000000000000000000400    0   14   0   4   0   14  0   4   0   0 0   0  0    0  0   0  0   0  0   0  0   0 0   0 0  0 0  0  0 0 0   0   0   14   0   4   0   11   0   4   0   3  0  0   0   0  0  0  0  0 0  0  0 0000 00 0 0  0 0  0  0100185 93086 25000 3500024000240002000023000 18000 20000   1201  15198    388896     0   74695   34033    9586       000 0000000000000000000000000   0   0    000000000000000000000000000000  0  0999999999999999999999999999999999999999999999999999999999999999999999999999999999999999999999999999999999999999999999999999999999999999999999999999999999999999999999999999999999999999999999999999999999999999999999999999999999999999999999999999999999999999999999999999999999999999999999999999999999999999999999999999999999999999999999999999999999999999999999999999999999999999999999999999999999999999999999999999999999999999999999999999999999999999999999999999999999999999999999999999999999999999999999999999999999999999999999999999999999999999999999999999999999999999999999999
922211  244A 120130059260100POLICE DEPARTMENT                 1025     0   47233 90641110111110001000011003    9999999999999999999999999999999999999999999999999999   2  0  0 0  02200 600   2  0  0 0  0   0   0  0  0  0 0 0   0   0  0  0  00 0   0   0  0 0  00 0   0   0  0 0  00 0   0   0  0  0  00 0   0   0  0 0  00 0   0   0  0 0  000000    600    600      01111011 00   0   0  0  0 013113310  00  0   4   0  1  0  0 0 0 0  020000000000000000000000403   16    9   0   4   1    9  0   4   1   0 0   0  0    0  0   0  0   0  0   0  0   0 0   0 0  0 0  0  0 0 0   0   0    9   0   1   4    6   0   1   3   3  0  0   1   0  0  0  0  0 0  0  0 0000 00 0 0  0 0  0  0100185 93086 18463 18463    0    01591115911 14308 14308   1449  16707    206216     0   56363   14091       0       000 0000000000000000000000000   0   0    000000000000000000000000000000  0  0999999999999999999999999999999999999999999999999999999999999999999999999999999999999999999999999999999999999999999999999999999999999999999999999999999999999999999999999999999999999999999999999999999999999999999999999999999999999999999999999999999999999999999999999999999999999999999999999999999999999999999999999999999999999999999999999999999999999999999999999999999999999999999999999999999999999999999999999999999999999999999999999999999999999999999999999999999999999999999999999999999999999999999999999999999999999999999999999999999999999999999999999999999999999999999999999
922211  244A 120200019260100ANDALUSIA POLICE DEPT             1039     0  107882 63601110111111001010011003   29999999999999999999999999999999999999999999999999999   4  0  0 0  02200 600   4  0  0 0  0   0   0  0  0  0 0 0   0   0  0  0  00 0   0   0  0 0  00 0   0   0  0 0  00 0   0   0  0  0  00 0   0   0  0 0  00 0   0   0  0 0  0000009999999   840099999991111011 00   0   0  0  0 013122200  00  0   4   6  0  0  0 0 0 0  020000000000000000000000402   80   23   0   0   4   23  0   0   4   0 0   0  0    0  0   0  0   0  0   0  0   0 0   0 0  0 0  0  0 0 0   0   0   21   2   2   2   21   2   2   2   0  0  0   0   0  0  0  0  0 0  0  0 0000 00 0 0  0 0  0  0100185 93086 31000 4000023500300002000027000 20000 20000      0      0    552170     0   28517     721       0       000 0000000000000000000000000   0   0    000000000000000000000000000000  0  0999999999999999999999999999999999999999999999999999999999999999999999999999999999999999999999999999999999999999999999999999999999999999999999999999999999999999999999999999999999999999999999999999999999999999999999999999999999999999999999999999999999999999999999999999999999999999999999999999999999999999999999999999999999999999999999999999999999999999999999999999999999999999999999999999999999999999999999999999999999999999999999999999999999999999999999999999999999999999999999999999999999999999999999999999999999999999999999999999999999999999999999999999999999999999999999999
922211  244A 120200050260100OPP CITY POLICE DEPT              1039     0   69582 63601110111110001101000003   17999999999999999999999999999999999999999999999999999   5  0  0 0  12200 600   5  0  0 0  1   0   0  0  0  0 0 0   0   0  0  0  00 0   0   0  0 0  00 0   0   0  0 0  00 0   0   0  0  0  00 0   0   0  0 0  00 0   0   0  0 0  000000   1500   1000    5001111012 02  13   1  1  1 013333300  00  0   4   2  0  0  0 0 0 0  020000000000000000000000404    0   16   0   5   0   15  0   5   0   0 0   0  0    0  0   0  0   0  0   0  0   0 0   0 0  0 0  0  0 0 0   0   0   15   0   3   2   13   0   3   1   2  0  0   1   0  0  0  0  0 0  0  0 0000 00 0 0  0 0  0  0100185 93086 19584 195841104014400    0    0 10560 11040   1515  14392    265240     0   22474   23488       0       000 0000000000000000000000000   0   0    000000000000000000000000000000  0  0999999999999999999999999999999999999999999999999999999999999999999999999999999999999999999999999999999999999999999999999999999999999999999999999999999999999999999999999999999999999999999999999999999999999999999999999999999999999999999999999999999999999999999999999999999999999999999999999999999999999999999999999999999999999999999999999999999999999999999999999999999999999999999999999999999999999999999999999999999999999999999999999999999999999999999999999999999999999999999999999999999999999999999999999999999999999999999999999999999999999999999999999999999999999999999999999
922211  244A 120240023250100POLICE DEPARTMENT                 1047     0  256692 63601110111110000000000003   62999999999999999999999999999999999999999999999999999   3  0  0 0  02200 600   3  0  0 0  0   0   0  0  0  0 0 0   0   0  0  0  00 0   0   0  0 0  00 0   0   0  0 0  00 0   0   0  0  0  00 0   0   0  0 0  00 0   0   0  0 0  000000  18500   4625  138751101031 00   0   0  0  0 011111101 380  0  18  13  0  0  0 0 0 0  020000000000000000000000404  110   39   0  18   6   39  0  18   6   0 0   0  0    0  0   0  0   0  0   0  0   0 0   0 0  0 0  0  0 0 0   0   0   36   3  18   6   24   3  16   6  12  0  2   0   0  0  0  0  0 0  0  0 0000 00 0 0  0 0  0  0 10186123186 23000 2300018500185001800018000 16000 1600099999999999999   1092400     0  218480   60000       0       000 0000000000000000000000000   0   0    000000000000000000000000000000  0  0999999999999999999999999999999999999999999999999999999999999999999999999999999999999999999999999999999999999999999999999999999999999999999999999999999999999999999999999999999999999999999999999999999999999999999999999999999999999999999999999999999999999999999999999999999999999999999999999999999999999999999999999999999999999999999999999999999999999999999999999999999999999999999999999999999999999999999999999999999999999999999999999999999999999999999999999999999999999999999999999999999999999999999999999999999999999999999999999999999999999999999999999999999999999999999999999
922211  244A 120250014260100POLICE DEPARTMENT                 1049     0   13103 90641110100000001010000003    4999999999999999999999999999999999999999999999999999   1  0  0 0  0   0   0   0  0  0 0  0   0   0  0  0  0 0 0   0   0  0  0  00 0   0   0  0 0  00 0   0   0  0 0  00 0   0   0  0  0  00 0   0   0  0 0  00 0   0   0  0 0  000000   2555   1060   14951111031 00   0   0  0  0 0111113313571  9   2   0  0  0  0 0 0 0  012000000000000000000000483    0    3   0   4   0    3  0   4   0   0 0   0  0    0  0   0  0   0  0   0  0   0 0   0 0  0 0  0  0 0 0   0   0    3   0   3   1    3   0   2   1   0  0  1   0   0  0  0  0  0 0  0  0 0000 00 0 0  0 0  0  0100186 93087 14600 14600 7800 78001310013100 11500 11500    877   6565     85250     0   11182   20000       0       000 0000000000000000000000000   0   0    000000000000000000000000000000  0  0999999999999999999999999999999999999999999999999999999999999999999999999999999999999999999999999999999999999999999999999999999999999999999999999999999999999999999999999999999999999999999999999999999999999999999999999999999999999999999999999999999999999999999999999999999999999999999999999999999999999999999999999999999999999999999999999999999999999999999999999999999999999999999999999999999999999999999999999999999999999999999999999999999999999999999999999999999999999999999999999999999999999999999999999999999999999999999999999999999999999999999999999999999999999999999999999
922211  244A 120257019260100HENAGAR TOWN P D                  1049     0   11313 90641111111110001000000003    4999999999999999999999999999999999999999999999999999   1  0  0 0  0   0   0   0  0  0 0  0   0   0  0  0  0 0 0   0   0  0  0  00 0   0   0  0 0  00 0   0   0  0 0  00 0   0   0  0  0  00 0   0   0  0 0  00 0   0   0  0 0  000000   7300   5840   14601111032 03   4   1  0  0 023331300  00  0   3   0  0  0  0 0 0 0  012000000000000000000000423    0    4   0   4   2    4  0   4   0   0 0   0  0    0  0   0  0   0  0   0  0   0 0   0 0  0 0  0  0 0 0   0   0    4   0   1   3    4   0   1   3   0  0  0   0   0  0  0  0  0 0  0  0 0000 00 0 0  0 0  0  0100185 93086 16000 1600014000140001300013000 12000 12000    192   2144    116600     0    5000   15000       0       000 0000000000000000000000000   0   0    000000000000000000000000000000  0  0999999999999999999999999999999999999999999999999999999999999999999999999999999999999999999999999999999999999999999999999999999999999999999999999999999999999999999999999999999999999999999999999999999999999999999999999999999999999999999999999999999999999999999999999999999999999999999999999999999999999999999999999999999999999999999999999999999999999999999999999999999999999999999999999999999999999999999999999999999999999999999999999999999999999999999999999999999999999999999999999999999999999999999999999999999999999999999999999999999999999999999999999999999999999999999999999
922211  244A 120258033260100SYLVANIA POLICE DEPT              1049     0   11553 90641110100010001100000003    2999999999999999999999999999999999999999999999999999   1  0  0 0  1   0   0   0  0  0 0  0   0   0  0  0  0 0 0   0   0  0  0  00 010001700  1 0  00 11700 200  1 0  00 1   0   0  0  0  00 0   0   0  0 0  00 0   0   0  0 0  000111   2653    625   20281111031 00   0   0  0  0 013331130  00  0   3   0  0  0  0 0 0 0  020000000000000000000000484    8    2   0   1   1    2  0   1   1   0 0   0  0    0  0   0  0   0  0   0  0   0 0   0 0  0 0  0  0 0 0   0   0    2   0   2   0    2   0   2   0   0  0  0   0   0  0  0  0  0 0  0  0 0000 00 0 0  0 0  0  0100185 93086 11440 132601040011700 936010400  7800 10400    340   1910     40000     0    4000       0       0       000 0000000000000000000000000   0   0    000000000000000000000000000000  0  0999999999999999999999999999999999999999999999999999999999999999999999999999999999999999999999999999999999999999999999999999999999999999999999999999999999999999999999999999999999999999999999999999999999999999999999999999999999999999999999999999999999999999999999999999999999999999999999999999999999999999999999999999999999999999999999999999999999999999999999999999999999999999999999999999999999999999999999999999999999999999999999999999999999999999999999999999999999999999999999999999999999999999999999999999999999999999999999999999999999999999999999999999999999999999999999999
922211  244A 120260013260100ECLECTIC TN POLICE DEPT           1051524000   11923 90641110111111001110000003    4999999999999999999999999999999999999999999999999999   1  0  0 0  02300 700   1  0  0 0  0   0   0  0  0  0 0 0   0   0  0  0  00 0   0   0  0 0  00 0   0   0  0 0  00 0   0   0  0  0  00 0   0   0  0 0  00 0   0   0  0 0  0000009999999   547599999991011031 00   0   0  0  0 013131100  00  0   3   0  0  0  0 0 0 0  020000000000000000000000420    0    4   0   4   0    4  0   4   0   0 0   0  0    0  0   0  0   0  0   0  0   0 0   0 0  0 0  0  0 0 0   0   0    4   0   4   0    4   0   4   0   0  0  0   0   0  0  0  0  0 0  0  0 0000 00 0 0  0 0  0  0100185 93086 14206 1420613001136001146013000 11460 11460      0      0     96300     0    5778   16147       0       000 0000000000000000000000000   0   0    000000000000000000000000000000  0  0999999999999999999999999999999999999999999999999999999999999999999999999999999999999999999999999999999999999999999999999999999999999999999999999999999999999999999999999999999999999999999999999999999999999999999999999999999999999999999999999999999999999999999999999999999999999999999999999999999999999999999999999999999999999999999999999999999999999999999999999999999999999999999999999999999999999999999999999999999999999999999999999999999999999999999999999999999999999999999999999999999999999999999999999999999999999999999999999999999999999999999999999999999999999999999999999
922211  244A 120310032260100GENEVA POLICE DEPT                1061     0   47423 90641110110110001000111003    8999999999999999999999999999999999999999999999999999   2  0  0 0  0   0   0   0  0  0 0  0   0   0  0  0  0 0 0   0   0  0  0  00 0   0   0  0 0  00 0   0   0  0 0  00 0   0   0  0  0  00 0   0   0  0 0  00 0   0   0  0 0  000000  10968   3000   79681111032 02   4   0  0  0 013311300  00  0   2   2  0  0  0 0 0 0  020000000000000000000000405    0    8   0   4   0    8  0   4   0   0 0   0  0    0  0   0  0   0  0   0  0   0 0   0 0  0 0  0  0 0 0   0   0    8   0   1   3    8   0   1   3   0  0  0   0   0  0  0  0  0 0  0  0 0000 00 0 0  0 0  0  0100185 93086 17368 1736814081140811518415184 13540 13540      0      0    172510    15   12438   12311    4310       000 0000000000000000000000000   0   0    000000000000000000000000000000  0  0999999999999999999999999999999999999999999999999999999999999999999999999999999999999999999999999999999999999999999999999999999999999999999999999999999999999999999999999999999999999999999999999999999999999999999999999999999999999999999999999999999999999999999999999999999999999999999999999999999999999999999999999999999999999999999999999999999999999999999999999999999999999999999999999999999999999999999999999999999999999999999999999999999999999999999999999999999999999999999999999999999999999999999999999999999999999999999999999999999999999999999999999999999999999999999999999
922211  244A 120310065260100SAMSON POLICE DEPT                1061     0   22513 90641111111101001100110003    5999999999999999999999999999999999999999999999999999   1  0  0 0  1   0   0   0  0  0 0  0   0   0  0  0  0 0 0   0   0  0  0  00 0 6001800  1 0  00 11800 600  2 0  00 2   0   0  0  0  00 0   0   0  0 0  00 0   0   0  0 0  000111   5975    300   56751111032 02   2   1  1  1 013333300  00  0   3   0  0  0  0 0 0 0  020000000000000000000000424   12    4   1   4   0    4  1   4   0   0 0   0  0    0  0   0  0   0  0   0  0   0 0   0 0  0 0  0  0 0 0   0   0    5   0   3   1    5   0   3   1   0  0  0   0   0  0  0  0  0 0  0  0 0000 00 0 0  0 0  0  0 90185 83186 12584 1258411662116621133411334 11334 11334    138    801    105437     0   15380       0       0       000 0000000000000000000000000   0   0    000000000000000000000000000000  0  0999999999999999999999999999999999999999999999999999999999999999999999999999999999999999999999999999999999999999999999999999999999999999999999999999999999999999999999999999999999999999999999999999999999999999999999999999999999999999999999999999999999999999999999999999999999999999999999999999999999999999999999999999999999999999999999999999999999999999999999999999999999999999999999999999999999999999999999999999999999999999999999999999999999999999999999999999999999999999999999999999999999999999999999999999999999999999999999999999999999999999999999999999999999999999999999999
922211  2044 120370036250100POLICE DEPT                       1073100000 2775111 10001110111111011010100103  618999999999999999999999999999999999999999999999999999  21 23  0 0  42300 700  29 22  0 0  410001800  0  0  9 0 0   0   0  0  0  00 0   0   0  0 0  00 0   0   0  0 0  00 0   0   0  0  0  00 0   0   0  0 0  00 0   0   0  0 0  000000 321670 308810  128601111021 00   0   0  0  0 011311111 380  0 105 193 29 39 29 0 0 0  012111111111001111111110403    0  688   0 201   0  636  0 187   0  64 0  29  0  560  0  14  0  12  0 144  0   0 0   0 0  0 0  0  0 0 0   0   0  537  99  56 131  414  56  35  60 123 43 21  71   0  0  0  0  0 0  0  0 0000 00 0 0  0 0  0  0 70186 63087 49234 5982122610274141949023691 19490 1949099999999999999  27427975     6 2106521  223000  400000       020 0000001111012111000000001 640 640 950011010000031311113111121112111999999999999999999999999999999999999999999999999999999999999999999999999999999999999999999999999999999999999999999999999999999999999999999999999999999999999999999999999999999999999999999999999999999999999999999999999999999999999999999999999999999999999999999999999999999999999999999999999999999999999999999999999999999999999999999999999999999999999999999999999999999999999999999999999999999999999999999999999999999999999999999999999999999999999999999999999999999999999999999999999999999999999999999999999999999999999999999999999999999999999999999999999999999999999999999999999999999
922211  244A 120370176260100MIDFIELD POLICE DEPT              1073100000   61011 51281111111110001110010003   13999999999999999999999999999999999999999999999999999   4  0  0 0  12245 645   2  0  0 0  1   0   0  0  0  0 0 0   0   0  0  0  00 0 6451445  2 0  00 114452245  3 0  00 12245 645  2  0  00 1   0   0  0 0  00 0   0   0  0 0  000011  15000  12000   30001111031 00   0   0  0  0 013311100  00  0  11   2  0  0  0 0 0 0  011000000000000000000000400    0   13   0   4   0   13  0   4   0   0 0   0  0    0  0   0  0   0  0   0  0   0 0   0 0  0 0  0  0 0 0   0   0   13   0   2   2   13   0   2   2   0  0  0   0   0  0  0  0  0 0  0  0 0000 00 0 0  0 0  0  0100185 93086 31116 4166223254296602003026832 20030 20030      0      0    408664     0   94371    6613       0       000 0000000000000000000000000   0   0    000000000000000000000000000000  0  0999999999999999999999999999999999999999999999999999999999999999999999999999999999999999999999999999999999999999999999999999999999999999999999999999999999999999999999999999999999999999999999999999999999999999999999999999999999999999999999999999999999999999999999999999999999999999999999999999999999999999999999999999999999999999999999999999999999999999999999999999999999999999999999999999999999999999999999999999999999999999999999999999999999999999999999999999999999999999999999999999999999999999999999999999999999999999999999999999999999999999999999999999999999999999999999999
922211  244A 120370192250100POLICE DEPT                       1073100000  202571 51281110111111001110001003   45999999999999999999999999999999999999999999999999999   7  0  0 0  22300 700   4  1  0 0  2   0   0  0  0  0 0 0   0   0  0  0  00 0   0   0  0 0  00 0   0   0  0 0  00 0   0   0  0  0  00 0   0   0  0 0  00 0   0   0  0 0  000000  36500   8400  281001111031 00   0   0  0  0 013111100  00  0   9   4  1  1  0 0 0 0  020000000000000000000000404    0   48   0   9   0   45  0   9   0   0 0   0  0    0  0   0  0   0  0   0  0   0 0   0 0  0 0  0  0 0 0   0   0   44   1   2   7   39   1   2   6   4  0  0   0   0  0  0  0  0 0  0  0 0000 10 0 1  0 0  0  0100185 93086 34236 416832319228184    0    0 20134 24336   7976 123734   1779696    18   62804   30000       0       000 0000000000000000000000000   0   0    000000000000000000000000000000  0  0999999999999999999999999999999999999999999999999999999999999999999999999999999999999999999999999999999999999999999999999999999999999999999999999999999999999999999999999999999999999999999999999999999999999999999999999999999999999999999999999999999999999999999999999999999999999999999999999999999999999999999999999999999999999999999999999999999999999999999999999999999999999999999999999999999999999999999999999999999999999999999999999999999999999999999999999999999999999999999999999999999999999999999999999999999999999999999999999999999999999999999999999999999999999999999999999
922211  244A 120370267260100CITY POLICE DEPT                  1073100000  173011 51281110111110000010000003   28999999999999999999999999999999999999999999999999999   4  0  0 0  12300 700   4  0  0 0  1   0   0  0  0  0 0 1   0   0  0  0  00 0   0   0  0 0  00 0   0   0  0 0  00 0   0   0  0  0  00 0   0   0  0 0  00 0   0   0  0 0  000000  21000   9550  114501111031 00   0   0  0  0 023111300  00  0   8   6  0  1  0 0 0 0  020000000000000000000000400    0   28   0   0   0   28  0   0   0   0 0   0  0    0  0   0  0   0  0   0  0   0 0   0 0  0 0  0  0 0 0   0   0   27   1   0   0   27   1   0   0   0  0  0   0   0  0  0  0  0 0  0  0 0000 00 0 0  0 0  0  0100185 93086 35200 4000025600288002400024000 19200 19200      0      0    741828     0   75850   23000       0       000 0000000000000000000000000   0   0    000000000000000000000000000000  0  0999999999999999999999999999999999999999999999999999999999999999999999999999999999999999999999999999999999999999999999999999999999999999999999999999999999999999999999999999999999999999999999999999999999999999999999999999999999999999999999999999999999999999999999999999999999999999999999999999999999999999999999999999999999999999999999999999999999999999999999999999999999999999999999999999999999999999999999999999999999999999999999999999999999999999999999999999999999999999999999999999999999999999999999999999999999999999999999999999999999999999999999999999999999999999999999999
922211  2044 120450010250100HUNTSVILLE POLICE DEPT            1089344000 1634161 10001110111111001010000103  237999999999999999999999999999999999999999999999999999  25  1  0 0  42200 600  22  0  0 0  3   0   0  0  0  0 0 0   0   0  0  0  00 0 6001400 18 0  00 214002200 25 1  00 32200 600 21  0  00 2   0   0  0 0  00 0   0   0  0 0  000011  96132  89402   67301111011 00   0   0  0  0 011111101 380  0  67  83  7  0 18 0 0 0  020213011001101100111110403 1320  273   0  76  66  273  0  76  66  14 0   5  0  259  0   4  0   0  0  50  0   0 0  17 0  0 0  0  0 0 0   0  66  256  17  22 120  248  15  19 106   8  2  3  14   0  0  0  0  0 0  0  0 0000 00 0 0  0 0  0  0103186 93087 38480 5150020446261041768021465 17680 2146599999999999999   8081856     0 1281007  691692       0       011 0000001010022111000000001 480 560  21322000000031333113111222112111  0 33999999999999999999999999999999999999999999999999999999999999999999999999999999999999999999999999999999999999999999999999999999999999999999999999999999999999999999999999999999999999999999999999999999999999999999999999999999999999999999999999999999999999999999999999999999999999999999999999999999999999999999999999999999999999999999999999999999999999999999999999999999999999999999999999999999999999999999999999999999999999999999999999999999999999999999999999999999999999999999999999999999999999999999999999999999999999999999999999999999999999999999999999999999999999999999999999
922211  244A 120460027250100DEMOPOLIS POLICE DEPT             1091     0   75913 90641111111111011100111003   15999999999999999999999999999999999999999999999999999   5  0  0 0  02200 600   5  0  0 0  0   0   0  0  0  0 0 0   0   0  0  0  00 0   0   0  0 0  00 0   0   0  0 0  00 0   0   0  0  0  00 0   0   0  0 0  00 0   0   0  0 0  0000009999999  1825099999991111011 00   0   0  0  0 013313300  00  0  10   5  1  0  0 0 0 0  020000000000000000000000480    0   17   0   0   0   17  0   0   0   0 0   0  0    0  0   0  0   0  0   0  0   0 0   0 0  0 0  0  0 0 0   0   0   17   0   0   0   13   0   0   0   4  0  0   0   0  0  0  0  0 0  0  0 0000 00 0 0  0 0  0  0100185 93086 33000 3300021000210001500015000 12000 12000      0      0    405343     0   26600   30000   22000       000 0000000000000000000000000   0   0    000000000000000000000000000000  0  0999999999999999999999999999999999999999999999999999999999999999999999999999999999999999999999999999999999999999999999999999999999999999999999999999999999999999999999999999999999999999999999999999999999999999999999999999999999999999999999999999999999999999999999999999999999999999999999999999999999999999999999999999999999999999999999999999999999999999999999999999999999999999999999999999999999999999999999999999999999999999999999999999999999999999999999999999999999999999999999999999999999999999999999999999999999999999999999999999999999999999999999999999999999999999999999999
922211  244A 120460043260100LINDEN POLICE DEPT                1091     0   25843 90641110111110001000011003    5999999999999999999999999999999999999999999999999999   1  0  0 0  12300 700   1  0  0 0  1   0   0  0  0  0 0 0   0   0  0  0  00 0   0   0  0 0  00 0   0   0  0 0  00 0   0   0  0  0  00 0   0   0  0 0  00 0   0   0  0 0  000000   1860    930    9301111031 00   0   0  0  0 0111131013570  0   2   3  0  0  0 0 0 0  020000000000000000000000404    5    6   1   0   0    6  1   0   0   0 0   0  0    0  0   0  0   0  0   0  0   0 0   0 0  0 0  0  0 0 0   0   0    7   0   0   0    6   0   0   0   1  0  0   0   0  0  0  0  0 0  0  0 0000 00 0 0  0 0  0  0 80185 73186 18000 2400016000200001500018000 12500 14000      0      0    124260     0    5740    9000    1000       000 0000000000000000000000000   0   0    000000000000000000000000000000  0  0999999999999999999999999999999999999999999999999999999999999999999999999999999999999999999999999999999999999999999999999999999999999999999999999999999999999999999999999999999999999999999999999999999999999999999999999999999999999999999999999999999999999999999999999999999999999999999999999999999999999999999999999999999999999999999999999999999999999999999999999999999999999999999999999999999999999999999999999999999999999999999999999999999999999999999999999999999999999999999999999999999999999999999999999999999999999999999999999999999999999999999999999999999999999999999999999
922211  244A 120460050260100THOMASTON TOWN POL DEPT           1091     0    6103 90641101111111001001111003    1999999999999999999999999999999999999999999999999999   0  0  0 0  0   0   0   0  0  0 0  0   0   0  0  0  0 0 0   0   0  0  0  00 0   0   0  0 0  00 0   0   0  0 0  00 0   0   0  0  0  00 0   0   0  0 0  00 0   0   0  0 0  0000009999999    73099999991001031 00   0   0  0  0 000000000  00  0   1   0  0  0  0 0 0 0  012000000000000000000000 02   40    0   1   0   0    0  1   0   0   0 0   0  0    0  0   0  0   0  0   0  0   0 0   0 0  0 0  0  0 0 0   0   0    1   0   0   0    1   0   0   0   0  0  0   0   0  0  0  0  0 0  0  0 0000 00 0 0  0 0  0  0100186 93087     0     0    0    0    0    0     0     0      0      0      4000     0     500       0       0       000 0000000000000000000000000   0   0    000000000000000000000000000000  0  0999999999999999999999999999999999999999999999999999999999999999999999999999999999999999999999999999999999999999999999999999999999999999999999999999999999999999999999999999999999999999999999999999999999999999999999999999999999999999999999999999999999999999999999999999999999999999999999999999999999999999999999999999999999999999999999999999999999999999999999999999999999999999999999999999999999999999999999999999999999999999999999999999999999999999999999999999999999999999999999999999999999999999999999999999999999999999999999999999999999999999999999999999999999999999999999999
922211  244A 120480033260100BOAZ CITY POLICE DEPT             1095344000   72422 63601110111111001111001003   19999999999999999999999999999999999999999999999999999   4  0  0 0  12200 600   3  0  0 0  1   0   0  0  0  0 0 0   0   0  0  0  00 0   0   0  0 0  00 0   0   0  0 0  00 0   0   0  0  0  00 0   0   0  0 0  00 0   0   0  0 0  000000  88200  22050  661501111011 00   0   0  0  0 022212200  00  0   7   3  0  0  0 0 0 0  020000000000000000000000400    0   20   0   5   0   19  0   5   0   0 0   0  0    0  0   0  0   0  0   0  0   0 0   0 0  0 0  0  0 0 0   0   0   19   0   0   5   19   0   0   5   0  0  0   0   0  0  0  0  0 0  0  0 0000 00 0 0  0 0  0  0100185 93086 20880 2088018440189201296018440 12480 12960    760   9900    467039    15   94337   99066       0       000 0000000000000000000000000   0   0    000000000000000000000000000000  0  0999999999999999999999999999999999999999999999999999999999999999999999999999999999999999999999999999999999999999999999999999999999999999999999999999999999999999999999999999999999999999999999999999999999999999999999999999999999999999999999999999999999999999999999999999999999999999999999999999999999999999999999999999999999999999999999999999999999999999999999999999999999999999999999999999999999999999999999999999999999999999999999999999999999999999999999999999999999999999999999999999999999999999999999999999999999999999999999999999999999999999999999999999999999999999999999999
922211  244A 120480058260100GUNTERSVILLE POLICE DEPT          1095344000   70532 63601110111111101111001003   16999999999999999999999999999999999999999999999999999   7  0  0 0  11800 200   7  0  0 0  1   0   0  0  0  0 0 0   0   0  0  0  00 0   0   0  0 0  00 0   0   0  0 0  00 0   0   0  0  0  00 0   0   0  0 0  00 0   0   0  0 0  0000009999999   474599999991111011 00   0   0  0  0 013311100  00  0  10   5  2  0  0 0 0 0  020000000000000000000000400    0   22   0   0   0   22  0   0   0   0 0   0  0    0  0   0  0   0  0   0  0   0 0   0 0  0 0  0  0 0 0   0   0   22   0   0   0   22   0   0   0   0  0  0   0   0  0  0  0  0 0  0  0 0000 00 0 0  0 0  0  0100185 93086 25000 2500013632136321017610176  8772  8772      0      0    388116     0  214948   19749       0       000 0000000000000000000000000   0   0    000000000000000000000000000000  0  0999999999999999999999999999999999999999999999999999999999999999999999999999999999999999999999999999999999999999999999999999999999999999999999999999999999999999999999999999999999999999999999999999999999999999999999999999999999999999999999999999999999999999999999999999999999999999999999999999999999999999999999999999999999999999999999999999999999999999999999999999999999999999999999999999999999999999999999999999999999999999999999999999999999999999999999999999999999999999999999999999999999999999999999999999999999999999999999999999999999999999999999999999999999999999999999999
922211  2044 120490040250100MOBILE POLICE DEPT                1097516000 2032621 10001110111111001110010103  328999999999999999999999999999999999999999999999999999  63  3  2 0  32230 630  54  0  0 0  3   0   0  0  0  0 0 0   0   0  0  0  00 0   0   0  0 0  00 0   0   0  0 0  00 0   0   0  0  0  00 0   0   0  0 0  00 0   0   0  0 0  000000 135710 108568  271421111011 00   0   0  0  0 013111300  00  0  58 127  1  6 22 0 0 0  011131111101101111010110403  360  353   0 204  53  336  0 142  52  13 0  17  0  292  0  12  0  19  0  81  0  12 0  29 0  0 0  0  0 0 0   3  52  307  29  52 142  267  20  38  84  40  9 14  58   0  0  0  0  0 0  0  0 0000 00 0 0  0 0  0  0100185 93086 33960 5269218912293401633225344 14820 22992  42000 626582  13151707     0 2411000  360000       0       020 0101000000012110000000001 2802400  57221010011031313212111121111111999999999999999999999999999999999999999999999999999999999999999999999999999999999999999999999999999999999999999999999999999999999999999999999999999999999999999999999999999999999999999999999999999999999999999999999999999999999999999999999999999999999999999999999999999999999999999999999999999999999999999999999999999999999999999999999999999999999999999999999999999999999999999999999999999999999999999999999999999999999999999999999999999999999999999999999999999999999999999999999999999999999999999999999999999999999999999999999999999999999999999999999999999999999999999999999999999999
922211  2044 120510011250100MONTGOMERY POLICE DEPT            1101524000 1942871 10001110111111001110101103  389999999999999999999999999999999999999999999999999999   6 12  0 0  42000 600   0 15  0 0  3   0   0  0  0  0 0 0   0   0  0  0  00 0   0   0  0 0  00 0   0   0  0 0  00 0   0   0  0  0  00 0   0   0  0 0  00 0   0   0  0 0  000000 184825999999999999991111021 00   0   0  0  0 0111311013571  9 116 101  7  7 45 0 0 0  012221111111101111111110403  138  434   0 133  73  434  0 133  73  35 0  23  0  333  0  29  0  65  0  54  0   0 0  21 0  1 0  0  0 0 0   6  73  400  34  43 163  318  21  25  80  80 13 18  82   0  0  0  0  0 0  0  0 0000 10 0 0  1 0  0  1 70186 63087 37761 4680216757208961503719059 13544 17449  30455 265256  10410403     0  237264 1356856   46608       011 0000001010011210000000001 419  77 655521010000021211111221121112111  2 10999999999999999999999999999999999999999999999999999999999999999999999999999999999999999999999999999999999999999999999999999999999999999999999999999999999999999999999999999999999999999999999999999999999999999999999999999999999999999999999999999999999999999999999999999999999999999999999999999999999999999999999999999999999999999999999999999999999999999999999999999999999999999999999999999999999999999999999999999999999999999999999999999999999999999999999999999999999999999999999999999999999999999999999999999999999999999999999999999999999999999999999999999999999999999999999999
922211  244A 120530027260100UNIONTOWN POLICE DEPT             1105     0   20444141961110100010001000000003    5999999999999999999999999999999999999999999999999999   0  0  0 0  0   0   0   0  0  0 0  0   0   0  0  0  0 0 0   0   0  0  0  00 0   0   0  0 0  00 0   0   0  0 0  00 0   0   0  0  0  00 0   0   0  0 0  00 0   0   0  0 0  000000   1000    800    2001000031 00   0   0  0  0 011111101 380  0   3   0  0  0  0 0 0 0  020000000000000000000000 00    0    4   0   0   0    4  0   0   0   0 0   0  0    0  0   0  0   0  0   0  0   0 0   0 0  0 0  0  0 0 0   0   0    4   0   0   0    1   0   0   0   3  0  0   0   0  0  0  0  0 0  0  0 0000 00 0 0  0 0  0  0100185 93086 14544 1454410896108961080010800  8700  8700      0      0     54000     0   18451    9000       0       000 0000000000000000000000000   0   0    000000000000000000000000000000  0  0999999999999999999999999999999999999999999999999999999999999999999999999999999999999999999999999999999999999999999999999999999999999999999999999999999999999999999999999999999999999999999999999999999999999999999999999999999999999999999999999999999999999999999999999999999999999999999999999999999999999999999999999999999999999999999999999999999999999999999999999999999999999999999999999999999999999999999999999999999999999999999999999999999999999999999999999999999999999999999999999999999999999999999999999999999999999999999999999999999999999999999999999999999999999999999999999
922211  244A 120550041250100TROY CITY POLICE DEPT             1109     0  126335151411110111111001010001003   34999999999999999999999999999999999999999999999999999   5  0  0 0  02230 630   5  0  0 0  0   0   0  0  0  0 0 0   0   0  0  0  00 0 6301430  7 0  00 014302230  8 0  00 02230 630  7  0  00 0   0   0  0 0  00 0   0   0  0 0  000110  15895   3352  125431111011 00   0   0  0  0 0111111013570  0   9   8  3  0  2 0 0 0  020000000000000000000000401  700   34   0  12  12   34  0  12  12   0 0   0  0    0  0   0  0   0  0   0  0   0 0   0 0  0 0  0  0 0 0   0   0   33   1   8  16   28   1   7   7   5  0  1   9   0  0  0  0  0 0  0  0 0000 00 0 0  0 0  0  0100185 93086 24500 2700016978177061697816978 14040 16978      0      0    788320     0  162425   12000       0       000 0000000000000000000000000   0   0    000000000000000000000000000000  0  0999999999999999999999999999999999999999999999999999999999999999999999999999999999999999999999999999999999999999999999999999999999999999999999999999999999999999999999999999999999999999999999999999999999999999999999999999999999999999999999999999999999999999999999999999999999999999999999999999999999999999999999999999999999999999999999999999999999999999999999999999999999999999999999999999999999999999999999999999999999999999999999999999999999999999999999999999999999999999999999999999999999999999999999999999999999999999999999999999999999999999999999999999999999999999999999999
922211  244A 120560016260100ROANOKE CITY POLICE DEPT          1111     0   58635151411110111101001100000003   13999999999999999999999999999999999999999999999999999   1  1  0 0  12200 600   1  1  0 0  1   0   0  0  0  0 0 0   0   0  0  0  00 0   0   0  0 0  00 0   0   0  0 0  00 0   0   0  0  0  00 0   0   0  0 0  00 0   0   0  0 0  000000  18800  11200   76001111032 02   2   0  0  0 013333300  00  0   6   1  0  0  0 0 0 0  020000000000000000000000400    0   15   0   0   0   15  0   0   0   0 0   0  0    0  0   0  0   0  0   0  0   0 0   0 0  0 0  0  0 0 0   0   0   14   1   0   0   12   1   0   0   2  0  0   0   0  0  0  0  0 0  0  0 0000 00 0 0  0 0  0  0100185 93086 20202 2020213603136031295812958 12000 12000     70    633    225960    10   18000   26700   15000       000 0000000000000000000000000   0   0    000000000000000000000000000000  0  0999999999999999999999999999999999999999999999999999999999999999999999999999999999999999999999999999999999999999999999999999999999999999999999999999999999999999999999999999999999999999999999999999999999999999999999999999999999999999999999999999999999999999999999999999999999999999999999999999999999999999999999999999999999999999999999999999999999999999999999999999999999999999999999999999999999999999999999999999999999999999999999999999999999999999999999999999999999999999999999999999999999999999999999999999999999999999999999999999999999999999999999999999999999999999999999999
922211  244A 120560024260100WADLEY POLICE DEPT                1111     0    5465151411100100010000000000003    3999999999999999999999999999999999999999999999999999   0  0  0 0  0   0   0   0  0  0 0  0   0   0  0  0  0 0 0   0   0  0  0  00 0   0   0  0 0  00 0   0   0  0 0  00 0   0   0  0  0  00 0   0   0  0 0  00 0   0   0  0 0  0000009999999    10099999991000031 00   0   0  0  0 000000000  00  0   1   0  0  0  0 0 0 0  012000000000000000000000 04   20    0   1   0   0    0  1   0   0   0 0   0  0    0  0   0  0   0  0   0  0   0 0   0 0  0 0  0  0 0 0   0   0    1   0   0   0    1   0   0   0   0  0  0   0   0  0  0  0  0 0  0  0 0000 00 0 0  0 0  0  0 70186 63087     0     0    0    0    0    0     0     0      0      0      7800     0     500       0       0       000 0000000000000000000000000   0   0    000000000000000000000000000000  0  0999999999999999999999999999999999999999999999999999999999999999999999999999999999999999999999999999999999999999999999999999999999999999999999999999999999999999999999999999999999999999999999999999999999999999999999999999999999999999999999999999999999999999999999999999999999999999999999999999999999999999999999999999999999999999999999999999999999999999999999999999999999999999999999999999999999999999999999999999999999999999999999999999999999999999999999999999999999999999999999999999999999999999999999999999999999999999999999999999999999999999999999999999999999999999999999999
922211  244A 120590013260100ALABASTER POLICE DEPT             1117100000  128882 63601110111111001110100003   14999999999999999999999999999999999999999999999999999   2  0  0 0  02400 800   2  0  0 0  010001800  1  0  0 0 0   0   0  0  0  00 0   0   0  0 0  00 0   0   0  0 0  00 0   0   0  0  0  00 0   0   0  0 0  00 0   0   0  0 0  000000  16091   1491  146001111111 00   0   0  0  0 023133300  00  0  11   3  0  0  0 0 0 0  012000000000000000000000402   51   13   0   4   1   13  0   4   1   0 0   0  0    0  0   0  0   0  0   0  0   0 0   0 0  0 0  0  0 0 0   0   0   13   0   4   1   12   0   4   0   1  0  0   1   0  0  0  0  0 0  0  0 0000 00 0 0  0 0  0  0100185 93086 31000 3100026000260002320023200 20300 20300      0      0    437920     0  106139       0       0       000 0000000000000000000000000   0   0    000000000000000000000000000000  0  0999999999999999999999999999999999999999999999999999999999999999999999999999999999999999999999999999999999999999999999999999999999999999999999999999999999999999999999999999999999999999999999999999999999999999999999999999999999999999999999999999999999999999999999999999999999999999999999999999999999999999999999999999999999999999999999999999999999999999999999999999999999999999999999999999999999999999999999999999999999999999999999999999999999999999999999999999999999999999999999999999999999999999999999999999999999999999999999999999999999999999999999999999999999999999999999999
922211  244A 120590047260100HARPERSVILLE TOWN P D             1117100000   11292 63601100110000000000000003    1999999999999999999999999999999999999999999999999999   0  0  0 0  0   0   0   0  0  0 0  0   0   0  0  0  0 0 0   0   0  0  0  00 0   0   0  0 0  00 0   0   0  0 0  00 0   0   0  0  0  00 0   0   0  0 0  00 0   0   0  0 0  0000009999999   365099999991111031 00   0   0  0  0 013333300  00  0   1   0  0  0  0 0 0 0  011000000000000000000000990    0    1   0   3   0    1  0   3   0   0 0   0  0    0  0   0  0   0  0   0  0   0 0   0 0  0 0  0  0 0 0   0   0    1   0   3   0    1   0   3   0   0  0  0   0   0  0  0  0  0 0  0  0 0000 00 0 0  0 0  0  0100186 93087 18000 18000    0    01200015000 12000 12000      0      0     60000     0    7000       0       0       000 0000000000000000000000000   0   0    000000000000000000000000000000  0  0999999999999999999999999999999999999999999999999999999999999999999999999999999999999999999999999999999999999999999999999999999999999999999999999999999999999999999999999999999999999999999999999999999999999999999999999999999999999999999999999999999999999999999999999999999999999999999999999999999999999999999999999999999999999999999999999999999999999999999999999999999999999999999999999999999999999999999999999999999999999999999999999999999999999999999999999999999999999999999999999999999999999999999999999999999999999999999999999999999999999999999999999999999999999999999999999
