974911   1CJ44A 1000000090200500CAMPUS SECURITY                 AUBURN                          LEE COUNTY                      6   24 1081        8714628128005            11101111110011000000001   5473   4026   347   1100     0   5473   5370    10322                2                  11100000000000000002    2  001000   6   8 10  2  0  4 0 0  0 0  0203222133331111111001111111101110   26  3  21  15   26  3  21  15                                                                              24   2  12   9   20   2  11   7   4  0  1   2   0  0  0  0   0  0  0  0  0 0 0 0 00 0 0   0 0  0  010 188 93089 38400 61400 18500 296001420022800   4000    67000  0    962896   256000   163000      4   1 280 280                                  2            2   2000000010000001022110000003000030000300003000030010210101000 0000000000000 000              0000000000000000000000000000000000000000000000006124137 5   2981 8
974911   2CJ44A 1000000090201700COLLEGE SECURITY POLICE         BIRMINGHAM                      JEFFERSON COUNTY                6    7 1073100000 65152528128005            11111010000001000000001   3618   2054    30    350  1184   3618   2434   118432                2                  11100000011000000002    2  001000   2   1 00  0  1  1 0 0  0 0  0203223133330000110000001101000100    8  0   5   2    8  0   5   2                                                                               8   0   5   0    7   0   4   0   1  0  1   0   0  0  0  0   0  0  0  0  0 0 0 0 00 0 0   0 0  0  010 189 93090 32000 40000 25000 310001807724900    627     9400 15    388187    17929    35102      4   1 241   0                                  2            2   200000001000000003 2                                          0000000000000 000              0000000000000000000000000000000000000000000000006142141 2    88212
974911   3CJ44A 1000000090201900CAMPUS SECURITY POLICE          MONTGOMERY                      MONTGOMERY COUNTY               6   15 1101524000 20908528128005            11101011100001000000001   4052   3000    52   1000     0   2000   1800    20032                101000000010000000010000000001000000002    2  001000   2   1 00  0  0  0 0 0  0 0  0203223233330110110001001111000000   17  2   3   4   17  2   3   4                                                                              15   2   3   0    0   1   0   0  15  1  3   0   0  0  0  0   0  0  0  0  0 0 0 0 00 0 0   0 0  0  010 188 93089 30000 45000 17992 200001381116640   2550    32512  0    383980    26375    16000      4   1 200  80                                  2            2   200010001000000003 2                                          0000000000000 000              0000000000000000000000000000000000000000000000006134136 4   1981 8
974911   4CJ44A 1000000090202100CAMPUS SECURITY POLICE          NORMAL                          MADISON COUNTY                  6   19 1089344000 23891228128005            11101011100001001110001    110     90     0      0    20     75     60     1532                11100000001000000002                  2    2  000001   8   0 00  0  0  0 0 0  0 0  2203213333330000110000001000000000   28  0   0   0   25  0   0   0                                                                              25   0   0   0    1   0   0   0  24  0  0   0   0  0  0  0   0  0  0  0  0 0 0 0 00 0 0   0 0  0  0 8 188 93089 29790 29790 15000 150001355013550   1500    32500  0    371416    26425    10000      4   1 280  45                                  2            2   20000000100000000222                                          0000000000000 000              0000000000000000000000000000000000000000000000006134137 4   2581 8
974911   5OCJ44 1000000090203300LAW ENFORCEMENT SECTION         MONTGOMERY                      MONTGOMERY COUNTY               6  149 1101524000 20908511000005            00100000100111000001012  15000  11331     0   3669     0  39700   1974  3772632                11000000000000000002                  111332  001000 162   5 00  0  0  0 0 0  0 0  0123233133330000010001000000000100  156  0   7   0  150  0   6   0   30   0 0  147  0   0  0   0 0   6  0   0  0   0 0  0 0 0  0  0 0   0   0  148   2   3   3  146   2   2   3   2  0  1   0   0  0  0  0   0  0  0  0  0 0 0 0 00 0 0   0 0  0  010 188 93089 34554 52598 27040 410021965629796      0        0 20   7242769   782650   6708301122224   1 280208021000000133333333333312222121211222            2   200000001000000003 2                                          00000111111110000000000000000000000000000000000000000000000000000000000000000006 48 77 4  15011 1
974911   6CJ44A 1000000090203400MARINE POLICE UNIT              MONTGOMERY                      MONTGOMERY COUNTY               6   46 1101524000 20908528128005            11100000000010000000001   6291   4457     0   1834     0   6291   1350   494112                11000000001000000002                  11133111001000  45   0 00  0  0  0 0 0 35 0  0123223133330000111001001011000101   51  0  15   0   47  0  11   0                                                                              47   0   4   7   47   0   4   6   0  0  0   1   0  0  0  0   0  0  0  0  0 0 0 0 00 0 0   0 0  0  010 188 93089 32864 50102 24523 371541965629796    645     7424  0   1987769  1182029   196780      4   1 560  80                                  2            2   10000100100000000222                                          0000000000000 000              0000000000000000000000000000000000000000000000006130137 4   4781 8
974911   7OCJ44 1000000090290200STATE HWY DIV                   MONTGOMERY                      MONTGOMERY COUNTY               5  699 1101524000 20908511000003            11100111110011000000111  49717   5010    95    503 44109 113129 113129      012                11100000011000000002                  111332  000001 528 360 20  4  0  8 4 4  0 0  0121111111330111110001011111101100  677  0 575   0  677  0 575   0  210  71 0  555  0 107  0  50 0 174  0   0  0   0 0  0 0 0  0 51 0 223   0  669   8 214 361  460   4 174 277 209  4 40  84   0  0  0  0   0  0  0  0  0 0 0 0 00 0 0   0 0  0  010 188 93089 61071 61071 26390 400142115432058  69128  1529447  0  40279097  4000859  26328641122224   1 800 32021000010033333313311311221121211111  34 12920531 161111111111000110022110000003000030000300003000030011000000000 00000111111110000000000000000000000000000000000000000000000000000000000000000005 41 60 4  67711 1
974911   8CJ44A 1100400450210100SHERIFF S DEPT                  CENTREVILLE                     BIBB COUNTY                     1    4 1007        1657624098574 40 40 20  000001111110011111000001   1620   1080   180    360     0   1620   1458    16232                2                  111100001110000000011133111011000   3   2 00  0  0  0 0 0  0 0  0123133333330000000000000000000000    5  1   0   0    5  1   0   0                                                                               5   0   0   0    5   0   0   0   0  0  0   0   0  0  0  0   0  0  0  0  0 0 0 0 00 0 0   0 0  0  0 1 190123190 35000 35000 19000 190001800018000    800     7200  0    120665   219956        0      4   1 300 200                                  2            2   100010001000000003 10030000005000050000500005000052           0000000000000 000              0000000000000000000000000000000000000000000000001 66100 7    641 4
974911   9CJ44A 1100800820210100CALHOUN CO SHERIFFS OFC         ANNISTON                        CALHOUN COUNTY                  1   32 1015 45000 11603424098574 60 30 10  000100111110011111000101  73230   7380   150  65700     0  65817  65817      022                11000000000000000001000100000000000000122332  001100  19   3 00  2  0  0 0 0  0 0  0123231333330000110110000000000000   23  0  25   2   23  0  25   2                                                                              22   1  19   6   21   0  18   4   1  1  1   2   0  0  0  0   0  0  0  0  0 0 0 0 00 0 0   0 0  0  010 188 93089 37500 37500            1650018000   1000    15000  0    604772   126715    29616      4   1 160 160                                  1   2   400001  2111111111111111003 110000000050000500005000050000510210100200 0000000000000 000              0000000000000000000000000000000000000000000000001 83111 4   2341 4
974911  10CJ44A 1101201280210100SHERIFF S DEPT                  BUTLER                          CHOCTAW COUNTY                  1    8 1023        1601824098574 80 10 10  010101111110011111000001   2996   2920    24     52     0   2996   2996      012                110000000000000000010100000011000000002    2  010000   4   1 00  0  0  0 0 0  0 0  0113233133330100010001000000110000    6  0  10   0    6  0  10   0                                                                               6   0   6   4    4   0   4   3   2  0  2   1   0  0  0  0   0  0  0  0  0 0 0 0 00 0 0   0 0  0  010 189 93190 35000 35000 23000 230001855818558   1300    19500  0    218225    30000    15000      4   2                                          2            1  611011000100000100222                                          0000000000000 000              0000000000000000000000000000000000000000000000001 67100 7    641 4
974911  11CJ44A 1101601650210100COFFEE CO SHERIFF DEPT          ENTERPRIST                      COFFEE COUNTY                   1    7 1031        4024024098574 30 20 50  000101111100011111000002    663    450     3    210     0    663    650     1332                2                  111000000111000000011133112001000   4   4 00  3  0  0 0 0  0 0  0123233133330000010001000000110000    8  4  14  14    8  4  14  14                                                                               8   0  11   3    7   0  10   3   1  0  1   0   0  0  0  0   0  0  0  0  0 0 0 0 00 0 0   0 0  0  010 189 93090 35000 35000            1560015600   1921        0  0    136602    44108    27005      4   1 280   0                                  2            1  1100010001000000103 2                                          0000000000000 000              0000000000000000000000000000000000001001110000001 72104 6   1241 5
974911  12CJ44A 1101801890210100COUNTY SHERIFFS DEPT            EVERGREEN                       CONECUH COUNTY                  1    6 1035        1405424098574 35 20 45  000101111100011111100002   2654   2600    30     24     0   2654   1791    86332                10000000000000000011100001001101000000113332  011100   5   4 00  2  0  0 0 0  0 0  0113233133330110010001010010111000   10  0   5   2   10  0   5   2                                                                               8   2   2   3    6   1   0   0   2  1  2   3   0  0  0  0   0  0  0  0  0 0 0 0 00 0 0   0 0  0  010 190 93090 35000 35000 16500 200001650019000    200     3000  0    160000   136000     4000      4   1 280  50                                  1   1   300001  110011000100000100222                                          0000000000000 000              0000000000000000000000000000000000000000000000001 67101 7   1041 4
974911  13CJ44A 1102102180210100SHERIFF S DEPT                  LUVERNE                         CRENSHAW COUNTY                 1    5 1041        1363524098574 60 10 30  000101111110011111000001   6930   4620   866   1155   289      8      8      032                2                  1110000000000000000111332  111000   5   0 00  1  0  0 0 0  0 0  0123233333330000000000000000000000    4  0   6   1    4  0   6   1                                                                               4   0   4   2    4   0   3   1   0  0  1   1   0  0  0  0   0  0  0  0  0 0 0 0 00 0 0   0 0  0  010 189 93090 31000 31000 19000 190001300013000      0        0  0    168846    75761    34489      4   1 280   0                                  2            2   20000000100000000222                                          0000011111111 000              0000000000000000000000000000001111110001110000001 67 99 7    441 4
974911  14CJ44A 1103003080210100SHERIFF S OFFICE                RUSSELLVILLE                    FRANKLIN COUNTY                 1   11 1059        2781424098574 50 45  5  000101111110011111100002   3850   2200   220   1430     0   1160   1102     5832                2                  1000000000010000000111332  101000   9   4 00  0  0  0 0 0  0 0  0123233133330100110001000000000000   11  0  11   0   11  0  10   0                                                                              10   1   6   4    9   1   6   3   1  0  0   1   0  0  0  0   0  0  0  0  0 0 0 0 00 0 0   0 0  0  010 189 93090 35000 35000 17680 176801560015600   2100        0  0    382295    83000    31900      4   1 280 280                                  2            1  1200000000000000103 2                                          0000011111111 000              0000000000000000000000000000000000001001110000001 73104 6   1141 5
974911  15CJ44A 1103603690210100COUNTY SHERIFFS DEPT            SCOTTSBORO                      JACKSON COUNTY                  1   16 1071        4779624098574 60 35  5  000000111110011111000002   4800   3000    50   1750     0   4800   4800      012                2                  100000000010000000011133111000100  11   8 10  6  0  0 0 0  1 0  0121233333330000000000000000000000   33  1  15   1   33  1  15   1                                                                              33   0   5  10   32   0   5   7   1  0  0   3   0  0  0  0   0  0  0  0  0 0 0 0 00 0 0   0 0  0  010 189 93090 35000 35000 23411 234112126421264    861    15500  0    728000   124719   114000      4   1 280   0                                  1   2       01  1200110001100000003 2                                          0000000000000 000              0000000000000000000000000000000000000000000000101 73105 6   3441 5
974911  16OCJ44 1103703760270300COUNTY SHERIFFS DEPT            BIRMINGHAM                      JEFFERSON COUNTY                1  367 1073100000 65152511000004 40 30 30  011101111110001111000001 124200  55200  5475   3650 59875 124200  64325  5987532                2                  1111110011110000000121332  010100 139 134 00  7  0  3 0 0  0 0  1113223133330010110101011010110100  450  0 116   0  442  0 115   0   80  14 0  173  0  22  0  32 0  26  0 188  0  40 0 41 013  0  0 0   0   0  370  72  34  81  294  37  26  51  76 35  8  30   0  0  0  0   0  0  0  0  0 0 0 0 00 0 0   0 0  0  010 188 93089 67500 78915 22339 299311838725854  42331   558361  0  17329691  4400278   8899892 12114   1 280   021010000032331111123311221121211111  15   376671 1511011101110000100222                                          00000000000000000000000000000000000000000000000000000000000000000000000000000001 13 16 2  44211 1
974911  17CJ44A 1104204290210100COUNTY SHERIFF S OFC            ATHENS                          LIMESTONE COUNTY                1   15 1083344000  5413524098574 50 35 10  510101111110011111000001  10000   9144   124    732     0  10000   7667   233332                2                  1110000001110000000111332  000001  10   8 10  0  0  0 0 0  0 0  0123233133330000010000000000000001   18  0  14   0   18  0  14   0                                                                              18   0   6   8   18   0   6   7   0  0  0   1   0  0  0  0   0  0  0  0  0 0 0 0 00 0 0   0 0  0  010 189 93090 35000 35000 20000 240001900023000   1374    19236  0    700000   300000   200000      4   1 240 320                                  1   1   350001  6111110011000000003 2                                          0000001111000 000              0000000000000000000000000000000000000000000000001 77108 5   1841 4
974911  18CJ44A 1104504590210100COUNTY SHERIFFS DEPT            HUNTSVILLE                      MADISON COUNTY                  1   58 1089344000 23891224098574 40 40 20  010101111100011111000001   5000   4000  1000      0     0   5000   5000      012                10100000000000000012                  111332  010000  66  25 20 11  0  0 0 0  0 0  0113223333330000000101000000110000   90  0  25   7   90  0  25   7                                                                              86   4   1  24   75   2   1  18  11  2  0   6   0  0  0  0   0  0  0  0  0 0 0 0 00 0 0   0 0  0  010 188 93089 37500 37500 26020 287041849124772   3500    77177  0   2189869   856316   120000      4   1 280   0                                  1   9  6885911  2111111111010010003 110000000050000500005023000230011010101000 0000001111000 000              0000000000000000000000000000000000000000000000101 84  4 4   9041 4
974911  19OCJ44 1104904970210100SHERIFF S DEPT                  MOBILE                          MOBILE COUNTY                   1  125 1097516000 37864311000004  5 89  0  600101111110011111100001  14709   7355  3677   3677     0  13372  10188   318421 1  2 10 32 32 02                  2                  2    2  111000  90  42 00  4  0  0 0 0  2 0  0113221132331100110101110010101100  135  1 149  39  132  1 131  29   20  12 0  119  1   0  0   0 0  52  0  11  0  67 0  0 0 0  0  0 0   0  29  126   6  47  84  112   4  23  42  14  2 24  42   0  0  0  0   0  0  0  0  0 0 0 0 00 0 0   0 0  0  010 188 93089 55440 55440 24132 374401891229340      0    36902  0   8334324  2436494   7085301122114   1 200  8021000010032331111211311211121112211   9  1500001  5111110101000000003 2                                          01111011110110000000000000000000000000000000000000000000000000000001100000000101  6 10 3  13311 1
974911  20OCJ44 1105105180210100SHERIFF S DEPARTMENT            MONTGOMERY                      MONTGOMERY COUNTY               1  106 1101524000 20908511000004 55 44  1  011101111110000111000001  26711  19811  3500   3400     0  12533  12533      022                10100000001000000002                  111332  000001  45   8 00  2  0  0 0 0  2 0  0123223333331000010101011000110000  143  0  29   0  143  0  29   0  100   0 0   82  0   0  0   0 0  19  0  41  0  10 0 10 0 0  0  0 0   0   0   72  71   4  25   36  36   2  13  36 35  2  12   0  0  0  0   0  0  0  0  0 0 0 0 00 0 0   0 0  0  010 189 93090 42500 42500 21249 212491835618356   4000   188968  0   3200000  1500000   1500002 12224   2        21000010033333333333311222121111211   5  5500002   100110001000000003 2                                          00000111111110000000000000000000000000000000000000000000000000000001100000000101  3  6 4  14311 1
974911  21CJ44A 1105305320210100PERRY CO SHERIFF S OFC          MARION                          PERRY COUNTY                    1    4 1105        1275924098574 20 60 20  000101111110011111000001   2200   1800     0    400     0   1600   1120    48032                10000000001000000001110000000000000000111332  010100   3   1 00  0  0  0 0 0  0 0  0122233333330000000000000000000000    5  0   1   0    5  0   1   0                                                                               5   0   0   1    1   0   0   0   4  0  0   1   0  0  0  0   0  0  0  0  0 0 0 0 00 0 0   0 0  0  010 188 93089 35000 35000 16500 168001560016400    150     1650  0    200000    25000    75000      4   1 280   0                                  2            1  2200100001000000003 2                                          0000000000000 000              0000000000000000000000000000000000000000000000001 66100 7    541 4
974911  22CJ44A 1105505550210200PIKE CO SHERIFF S OFC           TROY                            PIKE COUNTY                     1    7 1109        2759524098574 50 10 15 2500101111110011111100001   3650   3650     0      0     0   3650   3650      032                2                  2                  2    2  000001   5   2 00  0  0  0 0 0  0 0  0123233333330000000000000000000000    6  0   8   1    6  0   8   1                                                                               6   0   2   6    4   0   1   0   2  0  1   6   0  0  0  0   0  0  0  0  0 0 0 0 00 0 0   0 0  0  010 18910 190 35000 35000            1560018000    600     7000  0    140000   280348        0      6   2                                          2            1  1200110001000000003 2                                          0000000000000 000              0000000000000000000000000000000000000000000000001 72103 6    641 5
974911  23CJ44A 1105605620210100SHERIFF S DEPT                  WEDOWEE                         RANDOLPH COUNTY                 1    4 1111        1988124098574 50 10 40  000101111110001111000002   5475   4764   164    547     0   4928   4928      032                1000000000100000000110000000000000000011133111010000   6   1 00  0  0  0 0 0  0 0  0123233333330000000000000000000000    7  0   0   0    7  0   0   0                                                                               7   0   0   0    5   0   0   0   2  0  0   0   0  0  0  0   0  0  0  0  0 0 0 0 00 0 0   0 0  0  010 188 93089 35000 35000 15900 210001590019500    500        0  0    307000    93000    40000      4   1 280   0                                  1   1   250001  1200110001000000003 2                                          0000000000000 000              0000000000000000000000000000000000000000000000001 66100 7    741 4
974911  24CJ44A 1106306390210100TUSCALOOSA CO SHERIFF           TUSCALOOSA                      TUSCALOOSA COUNTY               1   56 1125860000 15052224098574 30 40 30  000101111110011111000001  10800  10800     0      0     0   7000   7000      012                2                  2                  2    2  011000  10  15 10  1  0  0 0 0  0 0  0203233133330000010000110010100000   65  0  35   0   65  0  35   0                                                                              59   6  10  25   51   5   8  20   8  1  2   5   0  0  0  0   0  0  0  0  0 0 0 0 00 0 0   0 0  0  010 188 93089 50000 50000 20202 306611618324568      0        0  0   2200000   660000   140000      4   1 240   0                                  1   8       01  2210010001010000003 2                                          0000000000000 000              0000000000000000000000000000000000001100000000101 84113 4   6541 4
974911  25CJ44A 1200240130200100ORANGE BEACH TOWN POLICE DEPT.  ORANGE BEACH                    BALDWIN                         2    7 1003516000   225328128001            11111111000011000111001   3000   1800   200   1000     0   3000   3000      021 1 72 10  4  4 02                  10000000011100000002    2  000001   7   3 00  1  0  0 0 0  1 0  0123233133330000010001111011001000   13  0   5   2   13  0   5   2                                                                              12   1   1   4   12   0   1   4   0  0  0   0   0  1  0  0   0  1  0  0  0 0 0 0 00 0 0   0 0  0  010 188 93089 30000 36000 20000 240001700019000      0        0  0    364329    33122    72260      4   1 640 168                                  2            1  0100110011000000003 100005100000000500005000051000011000000000 0000000000000 000              0000000000000000000000000000000000000000000000002 91118 9   1381 8
974911  26CJ44A 1200400190260100BRENT TOWN POLICE DEPT          BRENT                           BIBB COUNTY                     2    4 1007         277628128001            11101111110010001001001    788    600   100     88     0    788    788      012                2                  11100000011000000002    2  011000   3   0 00  0  0  0 0 0  0 0  0123233333330000000000000000000000    4  0   0   0    4  0   0   0                                                                               4   0   0   0    3   0   0   0   1  0  0   0   0  0  0  0   0  0  0  0  0 0 0 0 00 0 0   0 0  0  010 189 93090 22600 22600            1628518220    480     7800  0     84400    28700        0      4   1 240   0                                  2            1  0100110001000000002210200000005000050000500005000052           0000000000000 000              0000000000000000000000000000000000000000000000002 95120 8    481 9
974911  27CJ44A 1200400270260100CENTREVILLE POLICE DEPT         CENTREVILLE                     BIBB COUNTY                     2    4 1007         250828128001            11101111110010100000001   1000    800   100     50    50   1000   1000      032                2                  2                  2    2  011000   3   1 00  0  0  0 0 0  0 0  0123233333330000000000000000000000    4  0   0   0    4  0   0   0                                                                               4   0   0   0    3   0   0   0   1  0  0   0   0  0  0  0   0  0  0  0  0 0 0 0 00 0 0   0 0  0  010 188 93089 22000 22000            1700017000     50        0  0     72000     6000    24000      4   1 280   0                                  2            1  011111000111000100222                                          0000000000000 000              0000000000000000000000000000000000000000000000002 90120 8    481 9
974911  28CJ44A 1200800640250100OXFORD TOWN POLICE DEPT         OXFORD                          CALHOUN COUNTY                  2   26 1015 45000   936228128001            11101111110011110001001   8000   4800   400   2800     0   2880   2880      022                2                  111000000010000000011133112000001  11   6 00  0  0  0 0 0  0 0  0203233333330000000000000000000000   30  0   7   0   30  0   7   0                                                                              29   1   1   6   29   1   1   6   0  0  0   0   0  0  0  0   0  0  0  0  0 0 0 0 00 0 0   0 0  0  010 188 93089 14160 36384 10992 22272 928819812    520     4524  0    748462   185501    60000      4   1 280   0                                  1   1       01  111111101110001100222                                          0000000000000 000              0000000000000000000000000000000000000000000000102102123 8   3081 8
974911  29CJ44A 1201100360260100MAPLESVILLE POLICE DEPT         MAPLESVILLE                     CHILTON COUNTY                  2    2 1021          72528128001            11101000000001000000001    864    684   180      0     0    720    720      032                2                  2                  113332  010000   2   0 00  0  0  0 0 0  0 0  0123233333330000000000000000000000    2  0   3   1    2  0   3   1                                                                               2   0   1   2    2   0   1   2   0  0  0   0   0  0  0  0   0  0  0  0  0 0 0 0 00 0 0   0 0  0  010 188 93089 14775 22751 13575 21882             5875    44633  0     73167    14385    13336      4   1 252   0                                  2            2   20000000000000001222                                          0000000000000 000              0000000000000000000000000000000000000000000000002 90116 9    281 9
974911  30CJ44A 1201200350260100SILAS TN POLICE DEPT            SILAS                           CHOCTAW COUNTY                  2    1 1023          24528128001            10100000000011000000001    250    150    50     50     0    250    200     5012                2                  11100000000000000002    2  000001   1   0 00  0  0  0 0 0  0 0  0113233333330000000000000000000000    1  0   0   0    1  0   0   0                                                                               1   0   0   0    0   0   0   0   1  0  0   0   0  0  0  0   0  0  0  0  0 0 0 0 00 0 0   0 0  0  010 18910 190 16000 16000                            0        0 10     17600     1000     1500      4   2                                          2            2   200000000000000013 2                                          0000000000000 000              0000000000000000000000000000000011110000000000002 89115 9    181 9
974911  31CJ44A 1201400250260100LINEVILLE POLICE DEPT           LINEVILLE                       CLAY COUNTY                     2    6 1027         239428128001            11101000000001100000001    703    547   156      0     0    703    703      032                2                  1110000001100000000111332  011000   2   1 00  0  0  0 0 0  0 0  0203233333330000000000000000000000    5  0   3   2    5  0   3   2                                                                               5   0   1   2    3   0   1   2   2  0  0   0   0  0  0  0   0  0  0  0  0 0 0 0 00 0 0   0 0  0  010 189 93090 17535 17535 14678 146781300013000      0        0  0    111604    22712     8869      4   1 120   0                                  2            2   20010000100000000222                                          0000000000000 000              0000000000000000000000000000000000000000000000002 91117 9    581 8
974911  32CJ44A 1201700300260100LITTLEVILLE TOWN P D            RUSSELLVILLE                    COLBERT COUNTY                  2    6 1033265000    92528128001            11101111100001100001001   1000    750    20    200    30   1000   1000      032                2                  11100000011100000002    2  111000   3   1 00  0  0  0 0 0  0 0  0203223233330000100000011100000000    5  0   2   2    5  0   2   2                                                                               5   0   2   0    5   0   2   0   0  0  0   0   0  0  0  0   0  0  0  0  0 0 0 0 00 0 0   0 0  0  010 188 93089 15246 15246 13832 138321083612646    600     5000  0    112000     3000    18000      4   1 280  80                                  2            2   200000001000000003 110000003000030000300003000030011210000000 0000000000000 000              0000000000000000000000000000000000000000000000002 91117 9    581 8
974911  33CJ44A 1202500630260100MENTONE TOWN P D                MENTONE                         DE KALB COUNTY                  2    1 1049          47428128001            11001111100011000000002   1644   1200    60    384     0   1644   1479    16532                2                  11110001111100000012    2  111100   2   0 00  0  0  0 0 0  0 0  0123233333330000000000000000000000    1  2   0   0    1  2   0   0                                                                               1   0   0   0    1   0   0   0   0  0  0   0   0  0  0  0   0  0  0  0  0 0 0 0 00 0 0   0 0  0  0 1 190123190 16000 16000                         1040        0  0     20000     2500     1200      4   1 280  16                                  2            1  0200110001000000003 2                                          0000000000000 000              0000000000000000000000000000000011110000000000002 89116 9    381 9
974911  34OCJ44 1202800370250100GADSDEN POLICE DEPT             GADSDEN                         ETOWAH COUNTY                   2  109 1055288000  4252311000001            11101111100001110000101  60144  46464  2064  11616     0  26760  26760      022                11100000010000000001110000000100000000111332  001000  42  34 10  8  4  0 0 0  0 0  0113213113331111111101111111111110  109  0  22  21   99  0  22  19  120   0 0   74  0   0  0   2 0  22  5  11  0   0 3  0 0 0  0  0 0   0  11   87  12   2  20   75   7   1  18   7  4  1   2   1  0  0  0   1  0  0  0  0 0 0 0 10 0 0   3 1  0  010 188 93089 39312 42205 20425 220681713919510  22098   332137  0   3624092   578229   1319111321124   1 200 24011100000031331111111211211121111111   2   540001  21111101111010010021110000020001000010000020000030011210001000 00000000000000000000000000000000000000000000000000000000000000000000000000000002 20 27 6   9911 1
974911  35CJ44A 1203600290260100HOLLYWOOD TN POLICE DEPT        HOLLYWOOD                       JACKSON COUNTY                  2    2 1071          91628128001            11101101100001100000002   2025   2000    25      0     0   1977   1977      012                2                  11100000001000000002    2  101000   2   1 00  0  0  0 0 0  0 0  0123133333330000000000000000000000    2  1   1   1    2  1   1   1                                                                               2   0   0   1    2   0   0   1   0  0  0   0   0  0  0  0   0  0  0  0  0 0 0 0 00 0 0   0 0  0  010 189 93090 15000 15000            1200012000      0        0  0     45000    19750    13500      4   1 240 100                                  2            2   200000001000000003 2                                          0000000000000 000              0000000000000000000000000000000011001000000000002 90116 9    381 9
974911  36CJ44A 1203600860260100WOODVILLE TN POLICE DEPT        WOODVILLE                       JACKSON COUNTY                  2    2 1071          68728128001            11101000100000000000002     23     20     3      0     0     23     16      712                2                  1101000001100000001113332  111000   1   0 00  0  0  0 0 0  0 0  0123233333330000000000000000000000    0  1   0   0    0  1   0   0                                                                               0   0   0   0    0   0   0   0   0  0  0   0   0  0  0  0   0  0  0  0  0 0 0 0 00 0 0   0 0  0  010 189 93090                                        0        0  0      5400     2000       70      4   1 280   0                                  2            2   200000000000000013 2                                          0000000000000 000              0000000000000000000000000000000000000000000000002 90115 9    181 9
974911  37OCJ44 1203700360250100POLICE DEPT                     BIRMINGHAM                      JEFFERSON COUNTY                2  618 1073100000 26596811000001            11101111110001010000101 453000 436470 12000   4530     0 453000 443000  1000022                10100000001000000001111100000000000000111332  011100 106 225 10  0 38 23 0 0  2 0  0203221133331100011101111110000000  706  0 222   0  706  0 201   0  170  14 0  626  0  28  0  62 0  87  0   1  0  72 0  0 0 0  0  0 0   0   0  579 127  59 142  390  62  27  65 187 65 32  77   0  0  0  0   0  0  0  0  0 0 0 0 00 0 0   2 0  0  0 7 189 63090 50252 74235 23025 340281990529370  82807        0  0  33780487  5924332   9962722 12114   1 640 48021010000121111311111311111121111211  26 11259962   111110111100001001211000000300003000030000300003002           00000000000000000000000000000000000000000000000000000000000000000001000000000102 31 40 3  70611 1
974911  38CJ44A 1203700510260100BROOKSIDE TOWN P D              BROOKSIDE                       JEFFERSON COUNTY                2    4 1073100000   136528128001            11111011000010101000001    167     95    10     62     0    160    160      011 1 24  3  0  0 02                  11100000011100000002    2  001000   1   0 00  0  0  0 0 0  0 0  0203233333330000000000000000000000    2  0   0   1    2  0   0   1                                                                               2   0   0   0    2   0   0   0   0  0  0   0   0  0  0  0   0  0  0  0  0 0 0 0 00 0 0   0 0  0  0 1 190123190 17500 17500 16500 16500              200     4000  0     38000     6000        0      4   1 280   0                                  2            2   200000000000000013 2                                          0000000000000 000              0000000000000000000000000000000000000000000000002 90116 9    281 9
974911  39CJ44A 1203700850250100POLICE DEPARTMENT               FAIRFIELD                       JEFFERSON COUNTY                2   24 1073100000  1220028128001            11101111110001110000001  16800  14300  1000   1500     0  15000  13000   200012                2                  111111011111000000011133111011000  19   7 00  0  0  0 0 0  0 0  0113233333330000000000000000000000   27  0   6   0   27  0   6   0                                                                              26   1   2   4   18   0   1   1   8  1  1   3   0  0  0  0   0  0  0  0  0 0 0 0 00 0 0   0 0  0  010 189 93090 44000 48700 24897 302432144426083   3480        0  0    870000    29000    96000      4   1 280 620                                  1   2   500001  2100110111000001003 2                                          0000000000000 000              0000000000000000000000000000000000000000000000002101125 7   2781 8
974911  40CJ44A 1203701270250100POLICE DEPARTMENT               HOMEWOOD                        JEFFERSON COUNTY                2   47 1073100000  2292228128001            11101111110001110000001  28114  25695  1119   1300     0  26995  26995      022                2                  1110000001100000000111332  011000  19  11 00  4  0  0 0 0  0 0  0113213333331010010001111011101110   55  0  15   4   54  0  15   4                                                                              52   2   9   6   46   2   8   5   6  0  1   1   0  0  0  0   0  0  0  0  0 0 0 0 00 0 0   0 0  0  010 188 93089 40476 54184 27456 367122364931720   3882    28000  0   2336305   185000    56000      4   1 420 720                                  1   2       02   100100011000001103 2                                          0000000000000 000              0000000000000000000000000000000000000000000000102102126 7   5481 8
974911  41CJ44A 1203701500250100POLICE DEPT                     LEEDS                           JEFFERSON COUNTY                2   19 1073100000   994628128001            11101101110001110001001  11811   7835   940   3036     0  11811  11811      032                2                  1111100111100000000111332  001000   5   4 00  0  0  0 0 0  0 0  0203233333330000000000000000000000   23  1   4   0   23  1   4   0                                                                              21   2   1   3   18   1   1   3   3  1  0   0   0  0  0  0   0  0  0  0  0 0 0 0 00 0 0   0 0  0  010 18810 189 30000 42000 22610 292861994724606      0     7023 31    824576    93764   104279      4   1 360  40                                  2            1  1111110001000000003 10200000005000050000500005000052           0000001111000 000              0000000000000000000000000000000000001100000110002101122 8   2481 8
974911  42CJ44A 1203702420260100TRAFFORD TOWN P D               TRAFFORD                        JEFFERSON COUNTY                2    2 1073100000    73928128001            11100000000000100000002    278    240     0     12    26    278    278      031 1 48  3  0  0 02                  1100000000000000000123332  001000   2   0 00  0  0  0 0 0  0 0  0203233333330000000000000000000000    0  2   0   0    0  2   0   0                                                                               0   0   0   0    0   0   0   0   0  0  0   0   0  0  0  0   0  0  0  0  0 0 0 0 00 0 0   0 0  0  010 189 93090                                        0        0  0      7227     2000        0      4   1 280   0                                  2            2   200000000000000013 2                                          0000000000000 111              0000000000000000000000000000000000000000000000002 90116 9    281 9
974911  43CJ44A 1203800500260100POLICE DEPARTMENT               SULLIGENT                       LAMAR COUNTY                    2    5 1075         188628128001            11101100100000000000001     50     30     7     10     3     50     50      012                2                  2                  2    2  010000   2   0 00  0  0  0 0 0  0 0  0123233333330000000000000000000000    4  2   0   0    4  2   0   0                                                                               4   0   0   0    3   0   0   0   1  0  0   0   0  0  0  0   0  0  0  0  0 0 0 0 00 0 0   0 0  0  010 188 93089 24750 27000 18782 220001484017000    680     6170  0    130347    32299    10000      4   1 240   0                                  2            2   200000001000000003 2                                          0000000000000 000              0000000000000000000000000000000000000000000000002 91117 9    681 8
974911  44CJ44A 1204100220260100POLICE DEPARTMENT               OPELIKA                         LEE COUNTY                      2   56 1081        2212228128001            11101111110011110001001  64277  51745  4142   8390     0  64277  64277      022                10000000010000000002                  11133111111100  24  17 20  2  0  0 0 0  0 0  0203211333331001111101110011100110   75  0  24   2   74  0  23   2                                                                              69   5   9  14   61   4   8  10   8  1  1   4   0  0  0  0   0  0  0  0  0 0 0 0 00 0 0   0 0  0  010 188 93089 29139 40706 18658 255841707723259   4775    82088  0   2212759   296522   177049      4   1   0 400                                  1   5       02   110110011000001002211000000005000050000500005000052           0000000000000 000              0000000000000000000000000000000000000000000000102103126 7   7481 8
974911  45OCJ44 1204500100250100HUNTSVILLE POLICE DEPT          HUNTSVILLE                      MADISON COUNTY                  2  237 1089344000 15978911000001            11101111110011010000101 102385  79954 13030   9401     0  90965  90965      012                11100000001000000002                  111332  011000 174  68 00  6  0 20 0 0  0 0  0203221133331111111101111111101110  320  0 120  71  282  0 108  71   70   6 0  275  0   7  0   0 0  60  0   0  0  33 0  0 0 0  0  0 0   2  71  270  12  31  77  254  11  25  68  14  1  6   9   1  0  0  0   1  0  0  0  0 0 0 0 10 0 0   0 0  0  010 188 93089 49608 73340 33571 335712065429099  24300   535000 15  11182675  1782795   7114231312224   1 640 48021000010031233111111211111121111211  12  5504351  211111001100000110222                                          00000000000000000000000000000000000000000000000000000000000000000000000000000002 26 37 4  28211 1
974911  46CJ44A 1204600430260100LINDEN POLICE DEPT              LINDEN                          MARENGO COUNTY                  2    5 1091         254828128001            11101111100001000001002   1000   1000     0      0     0   1000   1000      032                100000000000000000111111101111100000002    2  001000   4   1 00  0  0  0 0 0  0 0  0203233333330000000000000000000000    6  0   0   0    6  0   0   0                                                                               6   0   0   0    4   0   0   0   2  0  0   0   0  0  0  0   0  0  0  0  0 0 0 0 00 0 0   0 0  0  0 9308910 190 27120 27120 25400      1400015000    100     6625  0    276550    81060    27085      4   1 280   0                                  2            2   100110001000000003 11000000005000050000500005000052           0000001111011 000              0000000000000000000000000000001111111111110000002 96121 8    681 8
974911  47CJ44A 1204800250260100POLICE DEPT                     ARAB                            MARSHALL COUNTY                 2   14 1095344000   632128128001            11111111100001000001001   5400   4346  1000     54     0   5400   5400      012                2                  2                  2    2  111100   5   2 00  0  0  0 0 0  0 0  0203233333330000000000000000000000   16  0   5   1   16  0   5   1                                                                              16   0   3   2   16   0   3   2   0  0  0   0   0  0  0  0   0  0  0  0  0 0 0 0 00 0 0   0 0  0  010 188 93089 30000 30000 22000 220001250012500   1426    21398  0    478661   109810    61664      4   1 280   0                                  2            1  1200100001000000003 2                                          0000000000000 000              0000000000000000000000000000000000000000000000002 97122 8   1681 8
974911  48OCJ44 1204900400250100MOBILE POLICE DEPT              MOBILE                          MOBILE COUNTY                   2  328 1097516000 19627811000001            11101111110001010000101 134308 103854 15929  14525     0 134308 134308      022                10000000001000000001110000000100000000112332  001000 106 120 00  7  3 28 0 0  110  0113213131331101101101110111101110  365  0 104  58  365  0 104  58  170  11 0  309  0   0  0  23 0  62  0  16  0  28 0  0 0 0  0  0 0   3  58  330  35  32  72  273  19  23  36  56 16  9  36   0  0  0  0   0  0  0  0  0 0 0 0 10 0 0   0 0  0  010 188 93089 65000 65000 21888 339601714826616 179080  1016968  0   8679327  2158422   3960002 12114   1 240208021010011011231121222312211121212111  18  8170002   111111111111111003 110300003000030012300023000230011000000000 00000011110110000000000000000000000000000000000000000000000000000001000000000102 27 37 4  36511 1
974911  49CJ44A 1204980190260100WILMER TN POLICE DEPT           WILMER                          MOBILE COUNTY                   2    5 1097516000    49428128001            11000000000001000000001  14600  13067    73   1460     0  14600  11680   292012                2                  2                  2    2  000001   4   0 00  1  0  0 0 0  0 0  0203233333330000000000000000000000    9  2   0   0    9  2   0   0                                                                               4   5   0   0    3   4   0   0   1  1  0   0   0  0  0  0   0  0  0  0  0 0 0 0 00 0 0   0 0  0  010 188 93089 16332 21888            1344018012    800     8400  0    122362    23829     7329      4   1   0 120                                  2            2   200000001000000003 2                                          0000000000000 000              0000000000000000000000000000000000000000000000002 91118 9   1181 8
974911  50OCJ44 1205100110250100MONTGOMERY POLICE DEPT          MONTGOMERY                      MONTGOMERY COUNTY               2  389 1101524000 18710611000001            11101111110001110001101 215012 195418 12507   7087     0 215012 197544  1746822                1000000000100000000100000000010000000013133132001000 164 108 20 26  7 70 0 0  0 0  0113213133331111111001110111101110  418 17 130  70  418 17 130  70  130  14 0  399  0   0  0   0 0  94  0   6  0  22 0  0 0 0  0  017   0  70  382  36  37  93  292  14  18  50  90 22 19  43   0  0  0  0   0  0  0  0  0 0 0 0 00 0 0   0 0  0  010 188 93089 46200 57912 18666 232771617819437   3292    44443  0  12547142  1849074   7445361311214   1 560 96021010000131112111122312211121111221  29 11200002   111111011101001003 110000023000000502300023000030011000000000 00000000000000000000000000000000000000000000000000000000000000000000000000000002 27 37 4  43511 1
974911  51CJ44A 1205400260260100CARROLLTON TOWN P D             CARROLLTON                      PICKENS COUNTY                  2    2 1107         117028128001            11101101100011000000001    556    447    36     73     0    483    483      032                2                  11100000001000000012    2  000001   1   0 00  0  0  0 0 0  0 0  0203233333330000000000000000000000    2  0   1   0    2  0   1   0                                                                               2   0   1   0    2   0   1   0   0  0  0   0   0  0  0  0   0  0  0  0  0 0 0 0 00 0 0   0 0  0  010 188 93089 15000 18000            1100013000      0        0  0     48000     2500     2500      4   1 2401440                                  2            2   211010001000000003 110000000051000002300023000230010200101000 0000000000000 000              0000000000000000000000000000000000000000000000002 90116 9    281 9
974911  52CJ44A 1205500250260100BRUNDIDGE POLICE DEPT           BRUNDIDGE                       PIKE COUNTY                     2    6 1109         247228128001            11111101100011100000001   2059   1900    50    109     0   2059   2059      032                1100000000000000000100000000010000000011133111001000   6   1 00  0  0  0 0 0  0 0  0123233333330000000000000000000000    5  0   4   1    5  0   4   1                                                                               5   0   2   2    3   0   0   1   2  0  2   1   0  0  0  0   0  0  0  0  0 0 0 0 00 0 0   0 0  0  010 189 93090 22193 33800 17347 263741356120612   1536    16269  0    210864    36781     1808      4   1 280   0                                  2            1  0200000000000000013 110000000050000500005000050000511000000000 0000000000000 000              0000000000000000000000000000000000000000000000002 96117 9    581 8
974911  53CJ44A 1205800480260100CITY POLICE DEPT                RAGLAND                         ST. CLAIR COUNTY                2    4 1115100000   180728128001            11101111100001100000002    225    210    12      3     0    225    220      532                2                  11111111111110000012    2  001000   3   0 00  0  0  0 0 0  0 0  0203233333330000000000000000000000    4  2   3   2    4  2   3   2                                                                               4   0   1   2    4   0   1   1   0  0  0   1   0  0  0  0   0  0  0  0  0 0 0 0 00 0 0   0 0  0  011 189103190 15730 15730 15171 151711500015000    100     1100  0    158320    18238    15140      4   1 280   0                                  2            1  0200010001000000003 2                                          0000000000000 000              0000000000000000000000000000000000000000000000002 90117 9    681 9
974911  54CJ44A 1205800630260100SPRINGVILLE TN POLICE DP        SPRINGVILLE                     ST. CLAIR COUNTY                2    7 1115100000   191028128001            11111101100010000001001   1200    600   216    384     0   1200   1200      032                2                  11111100000000000002    2  000001   2   0 00  0  0  0 0 0  0 0  0203223233330000010001000000100000    4  2   0   0    4  0   0   0                                                                               3   1   0   0    3   1   0   0   0  0  0   0   0  0  0  0   0  0  0  0  0 0 0 0 00 0 0   0 0  0  010 188 93089 19000 19000 15000 150001280012800    120     7500  5    102900    24562    12000      4   1 270   0                                  2            2   21111001110000110212                                          0000000000000 000              0000000000000000000000000000000000001100000000002 91116 9    481 8
974911  55CJ44A 1205850130260100MARGARET TN POLICE DEPT         MARGARET                        ST. CLAIR COUNTY                2    3 1115100000    61628128001            11111111110011100010001    445    270    15    160     0    300    300      032                2                  11000000000000000002    2  110000   1   1 00  0  0  0 0 0  0 0  0113233333330000000000000000000000    1  1   0   0    1  1   0   0                                                                               1   0   0   0    1   0   0   0   0  0  0   0   0  0  0  0   0  0  0  0  0 0 0 0 00 0 0   0 0  0  010 18910 190 14400 14400             1000 1000      0        0  0     15400      600    11000      4   1  10  10                                  2            1  120000000100000000212                                          0000000000000 000              0000000000000000000000000000000000000000000000002 90116 9    281 9
974911  56CJ44A 1206200260260100CAMP HILL POLICE DEPT           CAMP HILL                       TALLAPOOSA COUNTY               2    4 1123         141528128001            11101111100010100000001    540    378    27    135     0    540    540      032                100000000000000000111101000001000000002    2  011100   2   1 00  0  0  0 0 0  0 0  0203233333330000000000000000000000    4  0   0   0    4  0   0   0                                                                               4   0   0   0    2   0   0   0   2  0  0   0   0  0  0  0   0  0  0  0  0 0 0 0 00 0 0   0 0  0  0 9308910 190 25000 25000 15000 175001450017300      0        0  0     67500    17500    17500      4   1 280  75                                  1   1    17501  1200110011000000103 10200002000020000200002000020002           0000000000000 000              0000000000000000000000000000000000000000000000002 90116 9    481 9
974911  57CJ44A 1206200420260100DADEVILLE POLICE DEPT           DADEVILLE                       TALLAPOOSA COUNTY               2    8 1123         327628128001            11101111110001000000001   2700   1755    45    900     0   2700   2700      032                2                  1100000000100000000111332  001000   3   1 00  0  0  0 0 0  0 0  0203233333330000000000000000000000    9  0   0   0    9  0   0   0                                                                               9   0   0   0    7   0   0   0   2  0  0   0   0  0  0  0   0  0  0  0  0 0 0 0 00 0 0   0 0  0  0 9308910 190 19000 19700 18000 18300                0    16700  0    178000    24000    16000      4   2                                          2            1  2200100001000000003 2                                          0000000000000 000              0000000000000000000000000000000000001100000000002 96121 8    981 8
974911  58OCJ44 1206300250260100TUSCALOOSA POLICE DEPT          TUSCALOOSA                      TUSCALOOSA COUNTY               2  150 1125860000  7775911000001            11101111110011000000001  70425  41931  3900  24594     0  70425  68312   211322                2                  111100111111000000012233122011000  28  47 00 18  0 14 0 2  4 2  0203223133331110111001110110001010  175  0  53   2  168  0  53   2   50   1 0  149  0   0  0  12 0  52  2   0  0   0 0  2 0 0  0  0 0   0   0  152  16  45   8  126   9  44   0  24  7  1   8   2  0  0  0   2  0  0  0  0 0 0 0 00 0 0   0 0  0  010 188 93089 32500 57850 21308 324231739726471   7000   159436 13   5784925   744165   3694502 11224   1 120208021010000031333111211312211112111111   8  1810001 11111110011000001003 110000003000030000300003001030011212121200 00000010100000000000000000000000000000000000000000000000000000000001000000000102 23 33 5  16811 1
974911  59CJ44A 1206400990260200SUMITON TOWN POLICE             SUMITON                         WALKER COUNTY                   2    5 1127100000   260428128001            11101111110011100000011    595    450    15     50    80    545    450     9511 1 12 10100 95 52                  11111000011000000012    2  001000   5   1 00  0  0  0 0 0  0 0  0203233133330000110000000100000000    5  0   3   1    5  0   3   1                                                                               5   0   3   0    4   0   3   0   0  0  0   0   0  0  0  0   0  0  0  0  0 0 0 0 10 0 0   0 0  0  010 188 93089 17000 17000 16500 165001450014500   1800    11700  5    138600     4000    15000      4   1 280 960                                  2            1  1211111001000011003 110000000050000502000020000000511010101000 0000000000000 000              0000000000000000000000000000000000000000000000002 96121 8    581 8
974911  60CJ44A 1206600140260100POLICE DEPT                     CAMDEN                          WILCOX COUNTY                   2    6 1131         241428128001            11101111100011000001001    100     75    20      5     0    100    100      012                10100000000000000001100000000100000000111332  010000   3   0 00  0  0  0 0 0  0 0  0123233333330000000000000000000000    5  0   0   0    5  0   0   0                                                                               5   0   0   0    4   0   0   0   1  0  0   0   0  0  0  0   0  0  0  0  0 0 0 0 00 0 0   0 0  0  010 188 93089 12000 14000            1000012000   1300    14625  0    109685    17384        0      4   1 280   0                                  2            2   200100001000000003 2                                          0000000000000 000              0000000000000000000000000000000000000000000000002 91117 9    581 8
974911  61CJ44A 1206600480260100PINE HILL TN POLICE DEPT        PINE HILL                       WILCOX COUNTY                   2    3 1131          48128128001            11101111100000010000001    150     50    25     75     0    150    150      032                11000000000000000001000000001100000000113332  010000   3   0 00  0  0  0 0 0  0 0  0113233333330000000000000000000000    3  1   0   0    3  1   0   0                                                                               3   0   0   0    3   0   0   0   0  0  0   0   0  0  0  0   0  0  0  0  0 0 0 0 00 0 0   0 0  0  010 188 93089 20800 20800            1550018400     50        0  0     24400    27000    12890      4   1 280   0                                  2            2   200110001000000003 2                                          0000000000000 000              0000000000000000000000000000000000001101110000002 90116 9    481 9
974911  62CJ44A 1206700130260100ADDISON TOWN POLICE DEPT        ADDISON                         WINSTON COUNTY                  2    3 1133          62628128001            11101111110011111110001    500    487    10      3     0    500    500      032                2                  2                  2    2  000001   3   0 00  0  0  0 0 0  0 0  0203213333330000010001001011101000    3  0   0   0    3  0   0   0                                                                               3   0   0   0    3   0   0   0   0  0  0   0   0  0  0  0   0  0  0  0  0 0 0 0 00 0 0   0 0  0  010 190 93091 15000 20000            1200017000      0        0  0     37500      736     2234      4   2                                          2            2   200000001000000003 2                                          0000000000000 000              0000000000000000000000000000000000000000110000002 90116 9    381 9
974911  63CJ44A 1206700390260100POLICE                          HALEYVILLE                      WINSTON COUNTY                  2   11 1133         445228128001            11101000110001110100001   7500   6675   750     75     0   7500   6750    75012                10000000000000000011100000000100000000113332  111000   4   1 00  0  0  0 0 0  0 0  0202133333330000000000000000000000   12  1   3   3   11  1   3   3                                                                              10   1   3   0   10   1   3   0   0  0  0   0   0  0  0  0   0  0  0  0  0 0 0 0 00 0 0   0 0  0  010 189 93090 21000 21000 17800 178001633616970   3510    41944  0    283500   205900    21800      4   1 280 126                                  2            1  0201010001000000003 2                                          0000000000000 000              0000000000000000000000000000000000000000000000002 97122 8   1281 8
974911  64OCJ44 2000000080200600STATE OF ALASKA                 ANCHORAGE                       JUNEAU CITY AND BOROUGH         6  145 2110        2675111000005            00100000100000000000012      0      0     0      0     0      0      0      012                1100000000000000000111100011011000000011133122011000  74  23 00 10 10  526 0 6829  1121122113331111111001111111111111   88  0  36  47   84  0  36  23   30   5 0   81  0  10 23   0 0  12  0   0  0   0 0  0 0 0  0  0 0   9   0   82   2  23  13   77   2  22  12   0  0  0   0   0  0  0  0   0  0  0  0  0 0 0 0 50 0 1   0 0  1  0 7 189 63090 65016 88944 46548 648483466855980   8144   338383  0   9500952  2891958   2119861111214   1 520 48011000000131333333333311211121212112            2   2000000000000000122110000003000030000300003000030011212121200 00000111111110000000000000000000000000000000000000000000000000000000000000000006 47 73 6   8411 1
974911  65OCJ44 2000000080290100STATE TROOPERS DIVISION         JUNEAU                          JUNEAU CITY AND BOROUGH         5  286 2110        2675111000003            11101111100011101000001  90564  63395  1263  25906     0  90564  90500     6422                1100000000000000000101000000000000000011133111001000 128  76 00 51  0  0 5 2  6 1  4121223113330111111001111111111110  290  0 136   0  252  0 128   0  140  40 0  157  0   0  0  49 0  82  0   0  0   0 0 32 0 6  0  0 0   0   0  234  18  25 103  219  17  15  87   4  0  3  10   4  1  3  3   3  1  2  2  1 0 1 1 60 4 3   1 0  0  0 7 189 63090 64890 85870 46547 648434018855980  34860  1248480  0  34960000  3841000   1100001111214   1 599  8011000010032323112221311211121111111  23       01  7111110111100001002211000000005000050000500005000052           00000000000000000000000000000000000000000000000000000000000000000000000000000105 39 52 6  25211 1
974911  66OCJ44 2200200100260100ANCHORAGE POLICE DEPARTMENT     ANCHORAGE                       ANCHORAGE CITY/BOROUGH          2  279 2020 38000 22633811000001            11101111110001000000101 107811  99314  7436   1062     0  90868  90868      021 1 12 10  0  0 01100000000000000000101111000000000000111133111001000 193 108 00 15  0  4 0 0  0 0  2112111133331111111011110111001111  336  0 130   0  266  0 130   0  140   6 0  252  0   0  0   0 0 124  0   0  0   0 0  0 0 0  0  0 0   0   0  238  28  18 112  211  27  15  96  10  1  0   6   5  0  3  1   5  0  3  1  0 0 0 0 50 0 5   7 0  0  4 1 189123189 66206 66206 50898 581783623452894      0   378818  0  29181750   231370   7500002 11114   1 480 48011001000032313122211211211111111111   8 10000001  811111011111110000222                                          00000111111110000000000000000000000000000000000000000110011110000001100000000002 27 37 4  26611 1
974911  67CJ44A 2201000100260100KETCHIKAN POLICE DEPARTMENT     KETCHIKAN                       KETCHIKAN-GATEWAY BORO          2   30 2130         826328128001            11101111100001000100001  14640   6481   238   7921     0   5850   5850      012                11000000000000000001100000001101000000133112  010000   7   3 00  0  0  0 0 0  0 6  0113223333331100010001111111110011   29  0   0   0   29  0   0   0                                                                              19  10   0   0   14  10   0   0   0  0  0   0   1  0  0  0   1  0  0  0  0 0 0 0 30 0 0   1 0  0  0 1 189123189 53580 62532 42552 496683319238736   2313    60000  0   1634089   218138    45000      4   1 350 240                                  1   2   180002   111011001000000003 2                                          0000000000000 000              0000000000000000000000000000000000000000000000002 98123 8   2981 8
974911  68CJ44A 2201400730260200NOME CITY POLICE                NOME                            NOME CENSUS AREA                2    8 2180         350028128001            11101111100001001101001   3000   2179   165    585    72   3000   3000      012                2                  100000011100000000011133111011000   4   0 00  0  0  0 0 0  0 0  0121233133330110000001110000001000    8  0   5   0    8  0   5   0                                                                               8   0   2   3    7   0   0   1   0  0  0   0   0  0  0  0   0  0  0  0  0 0 0 0 10 2 2   0 0  0  0 63089 63090 62400 62400 49920 499203120031200    461    15000  0    300000    15000    40000      4   1 360 320                                  2            1  020001100100000000222                                          0000001111000 000              0000000000000000000000000000000000000000000000002 96121 8    881 8
974911  69CJ44A 2202200570260100WRANGELL POLICE DEPARTMENT      WRANGELL                        WRANGELL-PETERSBURG AREA        2    6 2280         247928128001            11111111100000010000001   3000   2430    98    472     0   3000   3000      032                2                  110000000100000000013311131011000   3   0 00  0  0  0 0 0  0 0  0202123133331111111101111111111110    7  0   5   7    7  0   5   7                                                                               7   0   0   5    7   0   0   5   0  0  0   0   0  0  0  0   0  0  0  0  0 0 0 0 00 0 0   0 0  0  0 7 189 63090 48000 48000 36000 360002900029000      0    43000  0    350000   335000    40000      4   1 320   0                                  1   1  1000001  2110111001100000003 110000020000200002000020000200010200001000 0000001111000 000              0000000000000000000000000000000000001100000000002 91117 9    781 8
974911  70CJ44A 3000000070200200UNIV OF ARIZ POLICE DEPT        TUCSON                          PIMA COUNTY                     6   35 4019852000 66688028128005            11111111100001000000001  17859  11985   559   5315     0  17300   1000  1630012                10000000001000000001111110001110000000111332  001000   8   5 00  2  0  1 0 0  0 0  0203231133330001110000000100000100   43  0  30   3   43  0  30   0                                                                              38   5  19  11   24   4  16   9   2  1  1   0   9  0  1  2   9  0  1  2  0 0 0 0 30 1 0   0 0  0  0 7 189 63090 54007 59408 29557 325182266524932   2347    35677  0   1886833   276937    59191      4   1 520 680                                  2            1  120011111110000000222                                          0000000000000 000              0000000000000000000000000000000000000000000000006145145 2   438212
974911  71OCJ44 3000000070290100ARIZONA DEPT OF PUBLIC SAFETY   PHOENIX                         MARICOPA COUNTY                 5  973 4013620000212210111000003            11110010111111000000102   3879   1942     0    336  1600   3879   3879      022                1000000001100000000101000000000000000012222131011000 683 501 20322  0 73 4 5  2 0 83113211111331111111011111110101110 1042  0 743   0  993  0 704   0 1090 253 0  856  0   0  0  28 0 451  0   0  0   0 0  0 0 0  0  0 0   0   0  949  44 345 359  785  38 304 312  19  1  5   4 121  5 33 38 121  5 33 38  0 0 0 0210 1 3   3 0  2  2 7 189 63090 85000 85000 38611 432822525534831      0        0  0  62402700 14345300  50874001322224   1 520 32021010010133133313111312222121211111  46 81636001 51111111111111111002210030000300003000030000300003002           00000011110110000000000000000000000000000000000000000000000000000001100000000005 45 71 1  99311 1
974911  72CJ44A 3100600660210100CO SHERIFF S OFF                CLIFTON                         GREENLEE COUNTY                 1   12 4011         800824098574 49 50  1  011101111110011111101001   5000   4596    93    311     0    500    500      032                2                  1110000001100000000111332  011000  10   8 00  7  0  0 0 0  0 0  0123233333330000000000000000000000   12  0   9   9   12  0   9   8                                                                              11   1   8   1    6   1   3   1   0  0  0   0   5  0  5  0   5  0  5  0  0 0 0 0 00 0 0   0 0  0  0 7 189 63090 52000 52000            1987522083   1450    23875  0    703890    56909     3366      4   1 440  80                                  2            1  0100010001100000002211000000300003000030000300003002           0000011111111 000              0000000000000000000000110011000000000000000000001 64 9810   1241 4
974911  73OCJ44 3100700730270100SHERIFF@S OFFICE                PHOENIX                         MARICOPA COUNTY                 1  396 4013620000212210111000004 27 71  2  011101111110011111000101 182943  44262  3342 135339     0 180325 178825   150022                2                  1100001000000000000133222  111000  73 119 20 27  7  5 0 1 11 0  4203221113331111111111110111111110  442  01331  13  417  01248  13  190  54 2  305  0  29  1  73 0 161  7   0  0 975 3 20 029  0  0 0   0   0  395  22 754 494  360  18 639 378   5  1 38  41  27  2 71 64  27  2 71 64  0 0 0 0 30 2 5   0 1  4  6 7 189 63090 65000 65000 32906 445122454433218  21163   407335  0  52037090 31360000  19829962 21114   1 400 32021011000032223233322312211121111111  26 14000001  31101111111000010022100300003000030000300003000030011000000000 00000000000000000000000000000000000000000000000000000000000000000000000000000001 15 21 1  41712 2
974911  74OCJ44 3101001020270100PIMA CO SHERIFF@S DEPT          TUCSON                          PIMA COUNTY                     1  327 4019852000 66688011000004 49 51  0  011111111110011011000101  88020  53692  3521  22885  1760  88020  76577  1144322                11000000011000000002                  111332  010000 178 155 00 44  0  0 4 0  0 0  0123231133331010111101110110101000  342  0 559   0  338  0 545   0  170  15 0  317  0   0  0   4 0 179  0   0  0 349 0  0 0 2  0  0 0   0   0  298  40 333 212  227  33 252 151  10  1 13  17  54  5 64 37  54  5 62 37  0 0 2 0 40 2 5   3 1  2  2 7 189 63090 65000 65000 32388 434042370031608  31000   617000  0  29750000  7200000    830001111224   1 600 52021010000011311111312311211111112111  10  4010001 10111110111100010002211000010000000050004000040000052           00000011110110000000000000000000000000000000000000000111111110000000000000000001 13 16 2  33811 1
974911  75OCJ44 3101101190210100PINAL CO SHERIFF S DEPT         FLORENCE                        PINAL COUNTY                    1  106 4021       11637911000004 60 30 10  011101111110011111000001  15265  13155   805   1305     0  13750  12935    81512                101000000000000000011100000011100000002    2  110000  94  43 00 18 20  0 1 0  2 0  0123221133331111011101110011111010  116  0 111   6  108  0 104   6   50   4 1  103  0   0  0   0 0  43  0   0  0  57 5  0 0 0  0  0 0   0   0   98  10  54  50   77  10  36  33   2  0  2   2  18  0 16 15  17  0 16 15  1 0 0 0 00 0 0   1 0  0  0 7 189 63090 52000 52000 23918 326741978426947   3600        0  0   4667142  1122896   4016601321224   1 460 48021010010032333323323312222121112211   7  2514001 12110111101100000003 2                                          00000000000000000000000000000000000000000000000000000110011110000000000000000001  3  5 4  10811 1
974911  76CJ44A 3101401400270100SHERIFF S DEPT                  YUMA                            YUMA COUNTY                     1   37 4027       10689524098574 40 57  3  011101111100011111000001  13353  11813   376   1164     0  12977  12977      022                2                  1100000001100000000133112  011000  23  13 00  7  0  0 1 0  3 0  0123213133330111110100100100000100   44  0 102   0   43  0  99   0                                                                              43   0  63  36   38   0  36  29   2  0  3   0   3  0 22  7   3  0 20  7  0 0 2 0 00 2 0   0 0  0  0 7 189 63090 52000 52000 19853 290491893026394   5090   112425  0   4001314  1770034   146389      4   1 440 120                                  2            1  311111011110000000222                                          0000000000000 000              0000000000000000000000000000000000000000000000001 78112 4   4341 4
974911  77CJ44A 3200200270260100BISBEE POLICE DEPARTMENT        BISBEE                          COCHISE COUNTY                  2   16 4003         628828128001            11101111100001000001001   4200   3800     0      0   400   4200   4200      012                2                  1010000001100000000111332  001000  13   4 00  0  0  0 0 0  0 0  0123233133330000010001100001000000   17  0   7   1   17  0   7   1                                                                              15   2   1   6   12   2   1   3   0  0  0   0   3  0  0  3   3  0  0  3  0 0 0 0 00 0 0   0 0  0  0 7 189 63090 37000 37000 21570 255421768022672   1800    17047  0    547995    61634     4938      4   1 420 240                                  1   1   220001  1111011011000001003 110000003000030000300003000030011210101000 0000000000000 000              0000000000000000000000000000001100000000000000002 97122 8   1781 8
974911  78CJ44A 3200200500260100TOMBSTONE MARSHALS DEPT         TOMBSTONE                       COCHISE COUNTY                  2    7 4003         122028128001            11101000100000000000001   3285   3285     0      0     0   3285   3285      011 1  1  2  0  0 02                  1100000000100000000111332  000001   5   1 00  0  0  0 0 0  0 0  0123133333330000000000000000000000    5  2   1   0    5  2   1   0                                                                               5   0   0   1    3   0   0   1   0  0  0   0   1  0  0  0   1  0  0  0  0 0 0 0 10 0 0   0 0  0  0 7 189 63090 22315 34464            1778723088      0        0  0    118800    79200        0      4   1 520   0                                  2            1  2200000001000000003 2                                          0000000000000 000              0000000000000000000000110000001111111100000000002 91117 9    781 8
974911  79CJ44A 3200450160260100HAYDEN POLICE DEPT              HAYDEN                          GILA COUNTY                     2    5 4007          90928128001            11101111100011000100001   2100   1800   200    100     0   2000   2000      032                2                  11100000011000000002    2  011000   4   2 00  0  0  0 0 0  0 0  0123133233330000000000000000000000    6  0   1   0    6  0   1   0                                                                               6   0   0   1    4   0   0   0   0  0  0   0   2  0  0  1   2  0  0  1  0 0 0 0 00 0 0   0 0  0  0 8 189 73190 28516 28516 22963 229631926020633    200        0  0    169624    58196     6569      4   1   0 440                                  2            2   20000000000000001222                                          0000000000000 000              0000000000000000000000000000000000000000000000002 91117 9    681 8
974911  80CJ44A 3200500240260100SAFFORD POLICE DEPT             SAFFORD                         GRAHAM COUNTY                   2   13 4009         735928128001            11101111100000000001011   4268   3500   220    548     0   4268   4268      012                2                  1110000001000000000111332  011000  10   5 00  0  0  0 0 0  0 0  0123233133330000010001100000001100   14  0   2   0   14  0   2   0                                                                              14   0   1   1   12   0   1   1   0  0  0   0   1  0  0  0   1  0  0  0  0 0 0 0 10 0 0   0 0  0  0 7 189 63090 32364 48540 21913 309631892826743   1698    27212  0    427920    30000    28000      4   1 440 160                                  2            1  0210011111100000003 2                                          0000000000000 000              0000000000000000000000000000000000000000000000002 97122 8   1481 8
974911  81CJ44A 3200600230260100DUNCAN POLICE DEPARTMENT        DUNCAN                          GREENLEE COUNTY                 2    2 4011          66228128001            11101111100010001101001    456     95     2    359     0    456    456      032                2                  2                  2    2  010000   4   1 00  0  0  0 0 0  0 0  0123233333330000000000000000000000    2  1   0   0    2  0   0   0                                                                               2   0   0   0    1   0   0   0   0  0  0   0   1  0  0  0   1  0  0  0  0 0 0 0 00 0 0   0 0  0  0 7 189 63090 18000 20000 15000 170001500015200    154        0  0     37000    20000     8000      4   1 440   0                                  2            2   210000001000000003 2                                          0000000000000 000              0000000000000000000000110000000000000000000000002 90116 9    281 9
974911  82CJ44A 3200700220260100POLICE DEPARTMENT               BUCKEYE                         MARICOPA COUNTY                 2   22 4013620000   503828128001            11101111100001001000001   8940   7063   197   1680     0   8940   8940      011 1 12  2  0  0 02                  10100000011000000002    2  011000  10   4 00  0  0  0 0 0  0 0  0123213133330010110001110011111010   12  6   6   1   12  6   6   1                                                                              11   1   2   4    9   0   1   2   1  1  1   1   1  0  0  1   1  0  0  1  0 0 0 0 00 0 0   0 0  0  0 7 189 63090 35800 35800 23665 349631900830962   1600        0  0    480739   157000    18000      4   1 460 160                                  1   5  1390001  311111111101001110222                                          0000000000000 000              0000000000000000000000000000000000000000000000002 97122 8   1881 8
974911  83OCJ44 3200700630260100GLENDALE POLICE DEPT            GLENDALE                        MARICOPA COUNTY                 2  170 4013620000 14813411000001            11101111110001000000001  81874  70844  5187   5843     0  81874  61816  2005821 2 24 40 26 19 71010100000100000000111000000010000000011133122111100  48  43 00  9  1 13 0 0  0 0  0123231133331111110001111110101110  192  0 105   0  184  0  76   0  110   1 0  171  0   2  0   1 0  71  0   0  0   2 0  1 0 0  0  0 0   0   0  165  19  25  51  149  17  23  34   2  0  1   2  14  2  1 15  14  2  1 15  0 0 0 0 00 0 0   0 0  0  0 7 189 63090 60514 81694 32534 446022808937920  56439  1200000  0  10996135  1391570   1292572 22114   1 440 48021010000031213233111311211121111111  15   600001  411111111111111110222                                          00000000000000000000000000000000000000000000000000000111111110000001100000000002 26 36 4  18411 1
974911  84OCJ44 3200700890250100MESA POLICE DEPT                MESA                            MARICOPA COUNTY                 2  295 4013620000 28809111000001            11101111111101110001101 789497 771991  8323   9183     0 174916 155523  1939312                11100000011000000002                  133112  111000 174 126 00  2  1 25 1 0  0 0  0112122131331111111101110111101110  390  0 199   6  384  0 198   4   60   7 0  371  0  24  3   6 0 154  1   1  0  11 0  0 0 0  0  0 0   2   0  350  34  65 133  324  29  59 114   3  1  4   4  19  4  1 13  19  4  1 13  0 0 0 0 30 0 2   1 0  1  0 7 189 63090 60996 91520 40846 451492880838870  49412  1068294  0  25367120  3586695   9585652 21114   1 640 52021010010031133113111311211121111111   8  3801001  21111101111000000022110000003000030000300003000030011212121200 00000000000000000000000000000000000000000000000000000111111110000000000000000002 30 39 3  38411 1
974911  85OCJ44 3200701050260100PHOENIX POLICE DEPT             PHOENIX                         MARICOPA COUNTY                 2 1751 4013620000 98340311000001            111011111111011010001111441009 460208220689 185624574488 667627 611512  5611521 1  6 46 60 60 01000000000100000000111000000010000000011133132011100 602 443 51 30 10123 3 7  010  0203211111311110111001111000101100 2018  0 635   7 1949  0 635   7  280  44 0 1840  0 125  3  70 0 455  4   0  0   0 0 11 011  0  0 0   0   0 1791 158 202 433 1517 129 175 319  60 10  5  26 201 13 20 80 201 13 20 80  0 0 0 0 53 1 3   8 3  1  5 7 189 63090 64356101292 31452 447362487636864 260000  7043711  0 117002883 20678282  51687501321114   1 680 44011000010031121112111211211121111111  49 32782741  11111111111111110022110000020000000510000100000030011000000000 00000011110000111000000000000000000000000000000000000111111110000000000000000002 35 45 2 194911 1
974911  86OCJ44 3200701130260100POLICE DEPARTMENT               SCOTTSDALE                      MARICOPA COUNTY                 2  150 4013620000 13006911000001            11101111110011000001001  82475  70000  5475   7000     0  82475  74975   750021 1 48 22 11 10 110100000000010000001011000001100000000111332  111100  61  44 00  2  0  6 0 0  0 1  2203221131331100110001111111101000  173  0  97   3  173  0  97   3   50   9 0  166  0  18  0   2 0  62  3   0  0   5 0  0 0 0  0  0 0   3   0  163  10  34  63  160  10  32  58   0  0  1   0   2  0  1  4   2  0  1  4  0 0 0 0 00 0 0   1 0  0  1 7 189 63090 60518 82000 42000 476002818440000  25441   661453  0  12312339  2820337    791542 22224   1 440 36021000000112132332222211211121211111   8  4340001  11100111111000010022100005003000030000300003000030011000000000 00000000000000000000000000000000000000000000000000000000000000000000000000000002 26 36 4  17311 1
974911  87OCJ44 3200701210250100TEMPE POLICE DEPT               TEMPE                           MARICOPA COUNTY                 2  200 4013620000 14186511000001            11101111110011010000001 161358  83868     0  77490     0 161358 148904  1245421 1 24 28 25 20 510100000011000000001010000011100000000111332  011100  85  78 00  8  5 25 0 0  0 2  3203223111331111100001110110101010  236  0  92   9  236  0  91   9  120   9 3  217  0  14  4   7 0  60  2   0  0   8 0  0 0 0  0  0 0   0   0  219  17  26  65  207  17  22  55   3  0  1   2   8  0  3  8   8  0  3  8  0 0 0 0 00 0 0   1 0  0  0 7 189 63090 68771 92848 34311 463132886138959  31618   770209  0  14815655   709716   1504071321224   1 680 32021010000021222221222311111111111111   7  4200001  4110111111101111003 110000003400034010000003400030011212121200 00000000000000000000000000000000000000000000000000000110011110000000000000000002 26 36 4  23611 1
974911  88CJ44A 3200701470260100WICKENBURG POLICE DEPT          WICKENBURG                      MARICOPA COUNTY                 2    9 4013620000   451528128001            11101111100011000001001   2900   1800   100    500   500   2875   2400    47522                2                  1110000001100000000111332  010000   8   2 00  0  0  0 0 0  0 0  0113233133330110010001000011100000   10  0   3   1   10  0   3   1                                                                              10   0   2   1    9   0   2   1   0  0  0   0   1  0  0  0   1  0  0  0  0 0 0 0 00 0 0   0 0  0  0 7 189 63190 38640 47124 24168 294722084425416   1000    15000  0    268952    70828    45939      4   1 240   0                                  2            1  0210010001000000003 2                                          0000000000000 000              0000000000000000000000000000000000000000000000002 96122 8   1081 8
974911  89CJ44A 3200750210260100SURPRISE POLICE DEPT            SURPRISE                        MARICOPA COUNTY                 2   11 4013620000   712228128001            11101101100000100000001   3658   3258   200    200     0   3558   3558      012                2                  1110000001100000000133112  011000  13   4 00  0  0  0 0 0  0 0  0203213333330010010001110000000000   15  0   1   0   15  0   1   0                                                                              15   0   0   1   12   0   0   0   2  0  0   0   1  0  0  1   1  0  0  1  0 0 0 0 00 0 0   0 0  0  0 7 189 63090 32000 40000 25000 320001700025000     40     9528  0    515729    98600        0      4   1 440 120                                  1   1   300001  120011000100000000222                                          0000000000000 000              0000000000000000000000000000000000000100000000002 97122 8   1581 8
974911  90CJ44A 3200750390260100YOUNGTOWN POLICE DEPT           YOUNGTOWN                       MARICOPA COUNTY                 2   12 4013620000   254228128001            11101101100001000000001   2549   1530    55    964     0   2294   2294      021 1 24  2  0  0 010000000001000000002                  11133111000001   3   1 00  1  0  0 0 0  0 1  0203233133330011010001100011001000    8  0   8   0    8  0   7   0                                                                               8   0   3   4    6   0   3   4   1  0  0   0   1  0  0  0   1  0  0  0  0 0 0 0 00 0 0   0 0  0  0 7 189 6 390 32690 41200 23400 306761725627480    189     2600  0    378428    59244     3000      4   1 480 960                                  2            1  0100110101100000003 2                                          0000000000000 000              0000000000000000000000000000000000000000000000002 92121 8    881 9
974911  91CJ44A 3200900380260100SNOWFLAKE POLICE DEPT           SNOWFLAKE                       NAVAJO COUNTY                   2    7 4017         367928128001            11101111110000000001001   7200   3240    15   3945     0   7200   7200      012                100000000010000000011100000011100000002    2  101000   7   1 00  0  0  0 0 0  0 0  0123233333330000000000000000000000    8  0   2   1    5  0   2   1                                                                               5   0   0   2    5   0   0   2   0  0  0   0   0  0  0  0   0  0  0  0  0 0 0 0 00 0 0   0 0  0  0 7 189 63090 31800 31800            1804418044      0        0  0    276550    26950    27085      4   1 440 120                                  2            2   200000000000000013 2                                          0000000000000 000              0000000000000000000000000000000000000000000000002 96121 8    581 8
974911  92OCJ44 3201000270260100TUCSON POLICE DEPT              TUCSON                          PIMA COUNTY                     2  669 4019852000 40539011000001            11101111111111000000101 516410 457374 16138  42898     0 268524 217063  5146121 5  2 12  0  0 01100000000100000000111000001110000000013211132111100 281 216 20  4  2 29 1 2  0 6  2123211111331111111001111111101110  767  0 251   0  745  0 244   0  190  19 0  685  0   2  0  41 0 223  0   0  0   0 0  0 0 0  0  0 0   0   0  654  91  58 186  490  73  51 136  22  1  0   4 133 16  7 40 133 16  7 40  0 0 0 0 41 0 3   5 0  0  3 7 189 63090 53916 89500 37872 438482641736072  87417  1542009  0  37611800  8617300   4993002 11214   1 920 52011010000031113111111111111111111111  15 21680001 151111101111000100022110000020000000500300003000030011000000000 00000000000000111000000000000000000000000000000000000111111110000000010000000102 31 40 3  74511 1
974911  93CJ44A 3201100260250100COOLIDGE POLICE DEPT            COOLIDGE                        PINAL COUNTY                    2   27 4021         692728128001            11111111110001010110001  17948  14030   378   3540     0  17948  17948      032                2                  1110000001110000000112332  101000  10   8 00  1  2  0 0 0  0 0  0203223133331110010001110011001010   20  1   6   1   20  1   6   1                                                                              19   1   1   5   16   1   0   5   1  0  0   0   2  0  1  0   2  0  1  0  0 0 0 0 00 0 0   0 0  0  0 7 189 63090 28260 36163 23244 297521912826986    410     5330  0    782723   129527    30450      4   1 400 160                                  2            1  2110110001000000003 2                                          0000000000000 000              0000000000000000000000000000000000000000000000002 98122 8   2181 8
974911  94CJ44A 3201100340250100POLICE DEPARTMENT               ELOY                            PINAL COUNTY                    2   17 4021         721128128001            11101111100001010001001   4800   4800     0      0     0   4800   4800      032                11000000000000000001000000000100000000111332  110000   8   5 00  0  0  0 0 0  0 0  0123133133330001010000100001001000   32  0  10   0   16  0  10   0                                                                              15   1   5   5   11   1   3   1   1  0  0   1   3  0  2  3   3  0  2  3  0 0 0 0 00 0 0   0 0  0  0 7 189 63090 37000 37000 22000 220001650016500      0        0  0    780000   520000        0      4   1 640   0                                  1   1   250001  110011000100000000222                                          0000000000000 000              0000000000000000000000110011110000001100000000002 97122 8   1681 8
974911  95CJ44A 3201340180200100CAPE VERDE TOWN POLICE DEPT.    CAPE VERDE                      YAVAPAI                         2    8 4025         624328128001            11101111100001000001011   3215   1941    46   1228     0   3215   3215      012                2                  110000000100000000011233112010110  11   2 10  1  0  0 0 0  0 0  0123231333331100010001111011101100   12  0   8   0   12  0   8   0                                                                              12   0   1   7   11   0   1   7   0  0  0   0   1  0  0  0   1  0  0  0  0 0 0 0 00 0 0   0 0  0  0 7 189 63090 34600 39900 22500 275002050024500    495        0  0    430904    48300    32300      4   1 440 200                                  1   1   288701  1111110011000011003 2                                          0000000000000 000              0000000000000000000000000000000000000000000000002 96122 8   1281 8
974911  96CJ44A 3201360130200100PRESCOTT VALLEY POLICE          PRESCOTT VALLEY                 YAVAPAI COUNTY                  2    9 4025         885828128001            11101111100001000001001   4525   4009   344    172     0   4525   4310    21511 1  2  3  0  0 02                  10100000011000000002    2  001000   9   6 00  2  0  0 0 0  0 0  0123213133330110110001100001011111   15  0   9   0   14  0   9   0                                                                              13   1   1   8   13   1   1   8   0  0  0   0   0  0  0  0   0  0  0  0  0 0 0 0 00 0 0   0 0  0  0 7 189 63090 29728 37129 22189 277111916323929    615        0  0    429716    78618    53817      4   1 440 320                                  2            1  1110010101100000003 2                                          0000000000000 000              0000000000000000000000000000000000000000000000002 96122 8   1481 8
974911  97OCJ44 4000000060201300ARKANSAS HIGHWAY POLICE         LITTLE ROCK                     PULASKI COUNTY                  5  255 5119440000 34966011000003            10000000000000000000001  90000  34946   138  54916     0  17630  17630      032                11100000000000000001110000001100000000133112  001000  83  14 00  1  0  0 0 0  0 0  0123221133330100111001001111010101  279  0  53   0  252  0  52   0   50   0 0  247  0   2  0   0 0  50  0   0  0   0 0  0 0 0  0  0 0   0   0  228  24  16  36  208  22  16  28  20  2  0   8   0  0  0  0   0  0  0  0  0 0 0 0 00 0 0   0 0  0  0 7 189 63090 47060 52650 26130 302121625020150   6300   129129  0   8003596  1598298     92031122124   1 320 12022000000033333333332312221111112112            2   211010001000000003 110000003000030000300003000000511210001000 00000111111110000000000000000000000000000000000000000000000000000000000000000005 41 62 3  25211 1
974911  98CJ44A 4000000060201400PARKS DIVISION                  LITTLE ROCK                     PULASKI COUNTY                  6   56 5119440000 34966028128005            10110000000011000000002    180    162     0     18     0    180    180      032                11100000000000000002                  11133111001100  17   1 00  0  0  0 0 0  0 0  0123233113330000000000000000000000   54  5   4   0   52  1   4   0                                                                              52   0   1   3   49   0   1   3   3  0  0   0   0  0  0  0   0  0  0  0  0 0 0 0 00 0 0   0 0  0  0 7 188 63090             15054 25064                0        0  0    797862    66887    57412      4   1 320   0                                  2            2   200000001000000003 2                                          0000001111000 000              0000000000000000000000000000000000000000000000006136134 3   538110
974911  99OCJ44 4000000060290100ARK STATE POLICE                LITTLE ROCK                     PULASKI COUNTY                  5  502 5119440000 34966011000003            11101111110011000000001  49717   5010    95    503 44109 113129 113129      012                1110000000000000000100000000110000000011133111000001 340 200 10 10  0  0 3 0  1 0  0123211133330110110000010100000101  491  0 209   0  476  0 181   0  340   5 0  431  0  30  0  11 0 146  0   0  0   0 0  0 0 0  0  0 0   0   0  459  17  65 116  406  15  61  95  48  2  4  20   2  0  0  1   2  0  0  1  0 0 0 0 10 0 0   2 0  0  0 7 189 63090 49174 51024 20696 344501710832318      0        0  0  23631109  5177911  24217621122214   1 280   021000011033333233323312222121212211  30  8583001  3111111011100011002211000000300003000030000300003002           00000111111110000000000000000000000000000000000000000000000000000000000000000105 41 62 3  47611 1
974911 100CJ44A 4101301320210100CO SHERIFF S DEPARTMENT         RISON                           CLEVELAND COUNTY                1    4 5025         778124098574 45 50  5  001101101000001001100001   2400    800   100   1500     0   2400   2400      032                11000000000000000002                  2    2  000001   4   1 00  0  0  0 0 0  0 0  0113233133330000000000000000000000    8  0   0   0    8  0   0   0                                                                               5   3   0   0    5   3   0   0   0  0  0   0   0  0  0  0   0  0  0  0  0 0 0 0 00 0 0   0 0  0  0 7 189 63090 23000 23000 18000 180001700017000      0        0  0    121000   118000    28400      4   1 320   0                                  2            2   200000001000000003 2                                          0000000000011 000              0000000000000000000000000000000000001100000000001 62 9710    841 4
974911 101CJ44A 4101501550210100COUNTY SHERIFF S DEPT           MORRILTON                       CONWAY COUNTY                   1    9 5029        1915124098574 70 15 10  511101111110011111000001    980    800    60    120     0    980    980      032                2                  111000000010000000011133111110000   6   2 00  1  0  0 0 0  1 0  0123233333330000000000000000000000    8  0   4   0    8  0   4   0                                                                               8   0   1   3    8   0   1   3   0  0  0   0   0  0  0  0   0  0  0  0  0 0 0 0 00 0 0   0 0  0  0 1 189123189 21811 21811 17808 178081450814508      0        0  0    208468    90503    32962      4   1 320   0                                  2            2   20011000100000000222                                          0000000000000 000              0000000000000000000000000000000000000000000000001 67100 7    841 4
974911 102CJ44A 4101601620210100SHERIFF S OFFICE                JONESBORO                       CRAIGHEAD COUNTY                1   13 5031        6895624098574 60 20 20  001001101000000011000001  12045   1825  1095   9125     0  12045  12045      032                2                  11000000000000000002    2  000001  10   4 00  0  0  0 0 0  0 0  0111233133330000110000000001100000   42  2   0   0   42  2   0   0                                                                              32  10   0   0   31   8   0   0   1  2  0   0   0  0  0  0   0  0  0  0  0 0 0 0 00 0 0   0 0  0  0 1 189123190 35000 35000 25111 254802300026000      0    55209  0    700000   150000    10000      4   1 400   0                                  2            2   110010001001000003 2                                          0000000000011 000              0000000000000000000000000000000011111100000000001 77109 5   4441 4
974911 103CJ44A 4101801860210100COUNTY SHERIFFS DEPT            MARION                          CRITTENDEN COUNTY               1   24 5035492000  4993924098574  5 90  5  010100101100000011000001   9125   7236   994    596   298   9125   2028   709732                11001000000000000002                  2    2  010000  10   7 00  0  0  0 0 0  0 0  0111233333330000000000000000000000   23  0   0   0   23  0   0   0                                                                              14   9   0   0    9   5   0   0   5  4  0   0   0  0  0  0   0  0  0  0  0 0 0 0 00 0 0   0 0  0  0 1 189123190 35000 35000 22500 225002000020000      0        0  0    830533   680461    60000      4   1 320   0                                  2            1  0211110101111001003 2                                          0000001111011 000              0000000000000000000000000000000000000000000000011 77104 6   2341 4
974911 104CJ44A 4101901930210100COUNTY SHERIFFS DEPT            WYNNE                           CROSS COUNTY                    1   13 5037        1922524098574 65 30  5  011101111110011111000001   2775   2500   200     75     0   2775   2775      032                10000000001000000001110000001100000000111332  010000   5   3 00  1  1  0 0 0  0 0  0113233233330000010001010001100000    9  0  16   2    9  0  16   2                                                                               9   0   5  11    9   0   4   9   0  0  1   2   0  0  0  0   0  0  0  0  0 0 0 0 00 0 0   0 0  0  0 1 189123189 23000 23000 19300 193001450017200     80        0  0    295178   140321    78000      4   2                                          1   0       01  91000100010000000022110000000050000500005000051000010210101000 0000000000000 000              0000000000000000000000000000000000001000000001111 68100 7    941 5
974911 105CJ44A 4102202220210100SHERIFF S DEPT                  MONTICELLO                      DREW COUNTY                     1   10 5043        1736924098574 95  0  5  011101111110010111100001    330    319     0      0    11    330    330      032                2                  2                  111332  000001   4   2 00  0  0  0 0 0  0 0  0123223333331000000000011000111000    7  0   0   0    7  0   0   0                                                                               6   1   0   0    6   1   0   0   0  0  0   0   0  0  0  0   0  0  0  0  0 0 0 0 00 0 0   0 0  0  0 1 190123190 25300 25300 17500 175001490014900      0        0  0     97383   130000    16072      4   1 320   0                                  2            1  1100110011100000003 2                                          0000001111000 000              0000000000000000000000000000000000000000000000001 68100 7    741 5
974911 106CJ44A 4102502520220100SHERIFF S DEPARTMENT            SALEM                           FULTON COUNTY                   1    4 5049        1003724098574 80  5 10  511101111110011111110002   2000   1500   100    400     0   1800   1800      032                2                  1100000000000000000123332  000001   3   1 00  1  0  0 0 0  0 0  0123233333330000000000000000000000    4  0   3   3    4  0   3   3                                                                               4   0   0   3    4   0   0   3   0  0  0   0   0  0  0  0   0  0  0  0  0 0 0 0 00 0 0   0 0  0  0 1 189 1 190 26419 26419 13085 130851258512585   2088        0  0     98372    51570    14000      4   1 320   0                                  2            1  3211100001100001003 2                                          0000000000000 000              0000000000000000000000000000000000001100000000001 66 99 7    441 4
974911 107CJ44A 4102702760210100COUNTY SHERIFFS DEPT            SHERIDAN                        GRANT COUNTY                    1    5 5053        1394824098574 95  0  5  011101111100011111000001   2000   1600   300    100     0   2000   2000      032                2                  1110001000000000000111332  010000   6   0 00  0  0  0 0 0  0 0  0113223333330100000000000000000000    5  0   4   0    5  0   4   0                                                                               5   0   2   2    5   0   2   2   0  0  0   0   0  0  0  0   0  0  0  0  0 0 0 0 00 0 0   0 0  0  0 1 189123189 22194 22194 16029 160291400814008      0        0  0    160812    46800    28000      4   1 320   0                                  2            2   200000001000000003 2                                          0000001111000 000              0000000000000000000000000000000000000000000000001 67100 7    541 4
974911 108CJ44A 4103103120210100CO SHERIFF S DEPT               NASHVILLE                       HOWARD COUNTY                   1    7 5061        1356924098574 80 10 10  011001111110011111000002   1500   1440    30     30     0   1500   1500      032                1100000000000000000111111011111000000011133111000001   3   2 00  1  1  0 0 0  1 0  0113233233330000010000000001100000    7  0   5   3    7  0   5   3                                                                               5   2   0   5    5   2   0   4   0  0  0   1   0  0  0  0   0  0  0  0  0 0 0 0 00 0 0   0 0  0  0 1 189123189 19000 34095 24675 246751150013000      0        0  0    184475    18000    32000      4   2                                          2            1  3110110001100000003 2                                          0000000000000 000              0000000000000000000000000000000011110000000000001 67100 7    741 4
974911 109CJ44A 4104704700210100MISS CO SHERIFF DEPT            LUXORA                          MISSISSIPPI COUNTY              1   21 5093        5752524098574 50 40 10  011101111110001111000001   1700   1400   100    200     0   1500   1300    20032                11000000001000000001010000001000000000121332  011000  14  10 00  2  2  0 0 0  0 0  0113213133330100011101000011101100   20  1  19   0   20  1  19   0                                                                              20   0  10   9   18   0   3   6   2  0  7   3   0  0  0  0   0  0  0  0  0 0 0 0 00 0 0   0 0  0  0 1 190123190 33000 33000 15400 154001190011900    300        0  5    819000   250000   100000      4   1 320 100                                  1   1   200001  1100111001000000003 2                                          0000000000000 000              0000000000000000000000000000000000000100000000001 77108 5   2141 4
